{
  "contractName": "ERC223",
  "abi": [
    {
      "inputs": [
        {
          "internalType": "string",
          "name": "tokenName",
          "type": "string"
        },
        {
          "internalType": "string",
          "name": "tokenSymbol",
          "type": "string"
        }
      ],
      "stateMutability": "nonpayable",
      "type": "constructor"
    },
    {
      "anonymous": false,
      "inputs": [
        {
          "indexed": true,
          "internalType": "address",
          "name": "owner",
          "type": "address"
        },
        {
          "indexed": true,
          "internalType": "address",
          "name": "spender",
          "type": "address"
        },
        {
          "indexed": false,
          "internalType": "uint256",
          "name": "value",
          "type": "uint256"
        }
      ],
      "name": "Approval",
      "type": "event"
    },
    {
      "anonymous": false,
      "inputs": [
        {
          "indexed": true,
          "internalType": "address",
          "name": "from",
          "type": "address"
        },
        {
          "indexed": false,
          "internalType": "uint256",
          "name": "value",
          "type": "uint256"
        }
      ],
      "name": "Burn",
      "type": "event"
    },
    {
      "anonymous": false,
      "inputs": [
        {
          "indexed": true,
          "internalType": "address",
          "name": "to",
          "type": "address"
        },
        {
          "indexed": false,
          "internalType": "uint256",
          "name": "value",
          "type": "uint256"
        }
      ],
      "name": "Mint",
      "type": "event"
    },
    {
      "anonymous": false,
      "inputs": [
        {
          "indexed": true,
          "internalType": "address",
          "name": "from",
          "type": "address"
        },
        {
          "indexed": true,
          "internalType": "address",
          "name": "to",
          "type": "address"
        },
        {
          "indexed": false,
          "internalType": "uint256",
          "name": "value",
          "type": "uint256"
        }
      ],
      "name": "Transfer",
      "type": "event"
    },
    {
      "stateMutability": "payable",
      "type": "fallback"
    },
    {
      "inputs": [],
      "name": "decimals",
      "outputs": [
        {
          "internalType": "uint8",
          "name": "",
          "type": "uint8"
        }
      ],
      "stateMutability": "view",
      "type": "function"
    },
    {
      "inputs": [],
      "name": "name",
      "outputs": [
        {
          "internalType": "string",
          "name": "",
          "type": "string"
        }
      ],
      "stateMutability": "view",
      "type": "function"
    },
    {
      "inputs": [],
      "name": "symbol",
      "outputs": [
        {
          "internalType": "string",
          "name": "",
          "type": "string"
        }
      ],
      "stateMutability": "view",
      "type": "function"
    },
    {
      "inputs": [],
      "name": "totalSupply",
      "outputs": [
        {
          "internalType": "uint256",
          "name": "",
          "type": "uint256"
        }
      ],
      "stateMutability": "view",
      "type": "function"
    },
    {
      "stateMutability": "payable",
      "type": "receive"
    },
    {
      "inputs": [
        {
          "internalType": "address",
          "name": "owner",
          "type": "address"
        }
      ],
      "name": "balanceOf",
      "outputs": [
        {
          "internalType": "uint256",
          "name": "",
          "type": "uint256"
        }
      ],
      "stateMutability": "view",
      "type": "function"
    },
    {
      "inputs": [
        {
          "internalType": "address",
          "name": "spender",
          "type": "address"
        },
        {
          "internalType": "uint256",
          "name": "value",
          "type": "uint256"
        }
      ],
      "name": "approve",
      "outputs": [
        {
          "internalType": "bool",
          "name": "success",
          "type": "bool"
        }
      ],
      "stateMutability": "nonpayable",
      "type": "function"
    },
    {
      "inputs": [
        {
          "internalType": "address",
          "name": "_spender",
          "type": "address"
        },
        {
          "internalType": "uint256",
          "name": "_currentValue",
          "type": "uint256"
        },
        {
          "internalType": "uint256",
          "name": "_value",
          "type": "uint256"
        }
      ],
      "name": "safeApprove",
      "outputs": [
        {
          "internalType": "bool",
          "name": "success",
          "type": "bool"
        }
      ],
      "stateMutability": "nonpayable",
      "type": "function"
    },
    {
      "inputs": [
        {
          "internalType": "address",
          "name": "owner",
          "type": "address"
        },
        {
          "internalType": "address",
          "name": "spender",
          "type": "address"
        }
      ],
      "name": "allowance",
      "outputs": [
        {
          "internalType": "uint256",
          "name": "remaining",
          "type": "uint256"
        }
      ],
      "stateMutability": "view",
      "type": "function"
    },
    {
      "inputs": [
        {
          "internalType": "address",
          "name": "from",
          "type": "address"
        },
        {
          "internalType": "address",
          "name": "to",
          "type": "address"
        },
        {
          "internalType": "uint256",
          "name": "value",
          "type": "uint256"
        }
      ],
      "name": "transferFrom",
      "outputs": [
        {
          "internalType": "bool",
          "name": "success",
          "type": "bool"
        }
      ],
      "stateMutability": "nonpayable",
      "type": "function"
    },
    {
      "inputs": [
        {
          "internalType": "address",
          "name": "spender",
          "type": "address"
        },
        {
          "internalType": "uint256",
          "name": "value",
          "type": "uint256"
        },
        {
          "internalType": "bytes",
          "name": "context",
          "type": "bytes"
        }
      ],
      "name": "approveAndCall",
      "outputs": [
        {
          "internalType": "bool",
          "name": "success",
          "type": "bool"
        }
      ],
      "stateMutability": "nonpayable",
      "type": "function"
    },
    {
      "inputs": [
        {
          "internalType": "uint256",
          "name": "value",
          "type": "uint256"
        }
      ],
      "name": "mint",
      "outputs": [
        {
          "internalType": "bool",
          "name": "success",
          "type": "bool"
        }
      ],
      "stateMutability": "nonpayable",
      "type": "function"
    },
    {
      "inputs": [
        {
          "internalType": "address",
          "name": "to",
          "type": "address"
        },
        {
          "internalType": "uint256",
          "name": "value",
          "type": "uint256"
        }
      ],
      "name": "mintTo",
      "outputs": [
        {
          "internalType": "bool",
          "name": "success",
          "type": "bool"
        }
      ],
      "stateMutability": "nonpayable",
      "type": "function"
    },
    {
      "inputs": [
        {
          "internalType": "uint256",
          "name": "value",
          "type": "uint256"
        }
      ],
      "name": "burn",
      "outputs": [
        {
          "internalType": "bool",
          "name": "success",
          "type": "bool"
        }
      ],
      "stateMutability": "nonpayable",
      "type": "function"
    },
    {
      "inputs": [
        {
          "internalType": "address",
          "name": "from",
          "type": "address"
        },
        {
          "internalType": "uint256",
          "name": "value",
          "type": "uint256"
        }
      ],
      "name": "burnFrom",
      "outputs": [
        {
          "internalType": "bool",
          "name": "success",
          "type": "bool"
        }
      ],
      "stateMutability": "nonpayable",
      "type": "function"
    },
    {
      "inputs": [
        {
          "internalType": "address",
          "name": "to",
          "type": "address"
        },
        {
          "internalType": "uint256",
          "name": "value",
          "type": "uint256"
        }
      ],
      "name": "transfer",
      "outputs": [
        {
          "internalType": "bool",
          "name": "success",
          "type": "bool"
        }
      ],
      "stateMutability": "nonpayable",
      "type": "function"
    },
    {
      "inputs": [
        {
          "internalType": "address",
          "name": "to",
          "type": "address"
        },
        {
          "internalType": "uint256",
          "name": "value",
          "type": "uint256"
        },
        {
          "internalType": "bytes",
          "name": "data",
          "type": "bytes"
        }
      ],
      "name": "transfer",
      "outputs": [
        {
          "internalType": "bool",
          "name": "success",
          "type": "bool"
        }
      ],
      "stateMutability": "nonpayable",
      "type": "function"
    }
  ],
  "bytecode": "0x60806040523480156200001157600080fd5b5060405162001dfe38038062001dfe8339818101604052810190620000379190620002da565b81600090805190602001906200004f9291906200008d565b508060019080519060200190620000689291906200008d565b506012600260006101000a81548160ff021916908360ff1602179055505050620003c3565b8280546200009b906200038e565b90600052602060002090601f016020900481019282620000bf57600085556200010b565b82601f10620000da57805160ff19168380011785556200010b565b828001600101855582156200010b579182015b828111156200010a578251825591602001919060010190620000ed565b5b5090506200011a91906200011e565b5090565b5b80821115620001395760008160009055506001016200011f565b5090565b6000604051905090565b600080fd5b600080fd5b600080fd5b600080fd5b6000601f19601f8301169050919050565b7f4e487b7100000000000000000000000000000000000000000000000000000000600052604160045260246000fd5b620001a6826200015b565b810181811067ffffffffffffffff82111715620001c857620001c76200016c565b5b80604052505050565b6000620001dd6200013d565b9050620001eb82826200019b565b919050565b600067ffffffffffffffff8211156200020e576200020d6200016c565b5b62000219826200015b565b9050602081019050919050565b60005b838110156200024657808201518184015260208101905062000229565b8381111562000256576000848401525b50505050565b6000620002736200026d84620001f0565b620001d1565b90508281526020810184848401111562000292576200029162000156565b5b6200029f84828562000226565b509392505050565b600082601f830112620002bf57620002be62000151565b5b8151620002d18482602086016200025c565b91505092915050565b60008060408385031215620002f457620002f362000147565b5b600083015167ffffffffffffffff8111156200031557620003146200014c565b5b6200032385828601620002a7565b925050602083015167ffffffffffffffff8111156200034757620003466200014c565b5b6200035585828601620002a7565b9150509250929050565b7f4e487b7100000000000000000000000000000000000000000000000000000000600052602260045260246000fd5b60006002820490506001821680620003a757607f821691505b602082108103620003bd57620003bc6200035f565b5b50919050565b611a2b80620003d36000396000f3fe6080604052600436106100f75760003560e01c806379cc67901161008a578063be45fd6211610059578063be45fd6214610406578063cae9ca5114610443578063dd62ed3e14610480578063f6503662146104bd57610137565b806379cc67901461032457806395d89b4114610361578063a0712d681461038c578063a9059cbb146103c957610137565b8063313ce567116100c6578063313ce5671461024257806342966c681461026d578063449a52f8146102aa57806370a08231146102e757610137565b806306fdde0314610172578063095ea7b31461019d57806318160ddd146101da57806323b872dd1461020557610137565b36610137576040517f08c379a000000000000000000000000000000000000000000000000000000000815260040161012e90611356565b60405180910390fd5b6040517f08c379a0000000000000000000000000000000000000000000000000000000008152600401610169906113e8565b60405180910390fd5b34801561017e57600080fd5b506101876104fa565b6040516101949190611490565b60405180910390f35b3480156101a957600080fd5b506101c460048036038101906101bf9190611550565b610588565b6040516101d191906115ab565b60405180910390f35b3480156101e657600080fd5b506101ef61067a565b6040516101fc91906115d5565b60405180910390f35b34801561021157600080fd5b5061022c600480360381019061022791906115f0565b610680565b60405161023991906115ab565b60405180910390f35b34801561024e57600080fd5b506102576107b8565b604051610264919061165f565b60405180910390f35b34801561027957600080fd5b50610294600480360381019061028f919061167a565b6107cb565b6040516102a191906115ab565b60405180910390f35b3480156102b657600080fd5b506102d160048036038101906102cc9190611550565b6108df565b6040516102de91906115ab565b60405180910390f35b3480156102f357600080fd5b5061030e600480360381019061030991906116a7565b6109a8565b60405161031b91906115d5565b60405180910390f35b34801561033057600080fd5b5061034b60048036038101906103469190611550565b6109f1565b60405161035891906115ab565b60405180910390f35b34801561036d57600080fd5b50610376610c22565b6040516103839190611490565b60405180910390f35b34801561039857600080fd5b506103b360048036038101906103ae919061167a565b610cb0565b6040516103c091906115ab565b60405180910390f35b3480156103d557600080fd5b506103f060048036038101906103eb9190611550565b610d78565b6040516103fd91906115ab565b60405180910390f35b34801561041257600080fd5b5061042d60048036038101906104289190611739565b610d93565b60405161043a91906115ab565b60405180910390f35b34801561044f57600080fd5b5061046a60048036038101906104659190611739565b610e13565b60405161047791906115ab565b60405180910390f35b34801561048c57600080fd5b506104a760048036038101906104a291906117ad565b610eb1565b6040516104b491906115d5565b60405180910390f35b3480156104c957600080fd5b506104e460048036038101906104df91906117ed565b610f38565b6040516104f191906115ab565b60405180910390f35b600080546105079061186f565b80601f01602080910402602001604051908101604052809291908181526020018280546105339061186f565b80156105805780601f1061055557610100808354040283529160200191610580565b820191906000526020600020905b81548152906001019060200180831161056357829003601f168201915b505050505081565b600081600560003373ffffffffffffffffffffffffffffffffffffffff1673ffffffffffffffffffffffffffffffffffffffff16815260200190815260200160002060008573ffffffffffffffffffffffffffffffffffffffff1673ffffffffffffffffffffffffffffffffffffffff168152602001908152602001600020819055508273ffffffffffffffffffffffffffffffffffffffff163373ffffffffffffffffffffffffffffffffffffffff167f8c5be1e5ebec7d5bd14f71427d1e84f3dd0314c0f7b2291e5b200ac8c7c3b9258460405161066891906115d5565b60405180910390a36001905092915050565b60035481565b6000600560008573ffffffffffffffffffffffffffffffffffffffff1673ffffffffffffffffffffffffffffffffffffffff16815260200190815260200160002060003373ffffffffffffffffffffffffffffffffffffffff1673ffffffffffffffffffffffffffffffffffffffff1681526020019081526020016000205482111561070b57600080fd5b81600560008673ffffffffffffffffffffffffffffffffffffffff1673ffffffffffffffffffffffffffffffffffffffff16815260200190815260200160002060003373ffffffffffffffffffffffffffffffffffffffff1673ffffffffffffffffffffffffffffffffffffffff168152602001908152602001600020600082825461079791906118cf565b9250508190555060606107ac85858584610fda565b60019150509392505050565b600260009054906101000a900460ff1681565b600081600460003373ffffffffffffffffffffffffffffffffffffffff1673ffffffffffffffffffffffffffffffffffffffff16815260200190815260200160002054101561081957600080fd5b81600460003373ffffffffffffffffffffffffffffffffffffffff1673ffffffffffffffffffffffffffffffffffffffff168152602001908152602001600020600082825461086891906118cf565b92505081905550816003600082825461088191906118cf565b925050819055503373ffffffffffffffffffffffffffffffffffffffff167fcc16f5dbb4873280815c1ee09dbd06736cffcc184412cf7a71a0fdb75d397ca5836040516108ce91906115d5565b60405180910390a260019050919050565b600081600460008573ffffffffffffffffffffffffffffffffffffffff1673ffffffffffffffffffffffffffffffffffffffff16815260200190815260200160002060008282546109309190611903565b9250508190555081600360008282546109499190611903565b925050819055508273ffffffffffffffffffffffffffffffffffffffff167f0f6798a560793a54c3bcfe86a93cde1e73087d944c0ea20544137d41213968858360405161099691906115d5565b60405180910390a26001905092915050565b6000600460008373ffffffffffffffffffffffffffffffffffffffff1673ffffffffffffffffffffffffffffffffffffffff168152602001908152602001600020549050919050565b600081600460008573ffffffffffffffffffffffffffffffffffffffff1673ffffffffffffffffffffffffffffffffffffffff168152602001908152602001600020541015610a3f57600080fd5b600560008473ffffffffffffffffffffffffffffffffffffffff1673ffffffffffffffffffffffffffffffffffffffff16815260200190815260200160002060003373ffffffffffffffffffffffffffffffffffffffff1673ffffffffffffffffffffffffffffffffffffffff16815260200190815260200160002054821115610ac857600080fd5b81600460008573ffffffffffffffffffffffffffffffffffffffff1673ffffffffffffffffffffffffffffffffffffffff1681526020019081526020016000206000828254610b1791906118cf565b9250508190555081600560008573ffffffffffffffffffffffffffffffffffffffff1673ffffffffffffffffffffffffffffffffffffffff16815260200190815260200160002060003373ffffffffffffffffffffffffffffffffffffffff1673ffffffffffffffffffffffffffffffffffffffff1681526020019081526020016000206000828254610baa91906118cf565b925050819055508160036000828254610bc391906118cf565b925050819055508273ffffffffffffffffffffffffffffffffffffffff167fcc16f5dbb4873280815c1ee09dbd06736cffcc184412cf7a71a0fdb75d397ca583604051610c1091906115d5565b60405180910390a26001905092915050565b60018054610c2f9061186f565b80601f0160208091040260200160405190810160405280929190818152602001828054610c5b9061186f565b8015610ca85780601f10610c7d57610100808354040283529160200191610ca8565b820191906000526020600020905b815481529060010190602001808311610c8b57829003601f168201915b505050505081565b600081600460003373ffffffffffffffffffffffffffffffffffffffff1673ffffffffffffffffffffffffffffffffffffffff1681526020019081526020016000206000828254610d019190611903565b925050819055508160036000828254610d1a9190611903565b925050819055503373ffffffffffffffffffffffffffffffffffffffff167f0f6798a560793a54c3bcfe86a93cde1e73087d944c0ea20544137d412139688583604051610d6791906115d5565b60405180910390a260019050919050565b60006060610d8833858584610fda565b600191505092915050565b6000610d9e85611211565b15610db657610daf85858585611224565b9050610e0b565b610e0633868686868080601f016020809104026020016040519081016040528093929190818152602001838380828437600081840152601f19601f82011690508083019250505050505050610fda565b600190505b949350505050565b6000610e1f8585610588565b15610ea45760008590508073ffffffffffffffffffffffffffffffffffffffff1663a2d57853338787876040518563ffffffff1660e01b8152600401610e6894939291906119b5565b600060405180830381600087803b158015610e8257600080fd5b505af1158015610e96573d6000803e3d6000fd5b505050506001915050610ea9565b600090505b949350505050565b6000600560008473ffffffffffffffffffffffffffffffffffffffff1673ffffffffffffffffffffffffffffffffffffffff16815260200190815260200160002060008373ffffffffffffffffffffffffffffffffffffffff1673ffffffffffffffffffffffffffffffffffffffff16815260200190815260200160002054905092915050565b600082600560003373ffffffffffffffffffffffffffffffffffffffff1673ffffffffffffffffffffffffffffffffffffffff16815260200190815260200160002060008673ffffffffffffffffffffffffffffffffffffffff1673ffffffffffffffffffffffffffffffffffffffff1681526020019081526020016000205403610fce57610fc78483610588565b9050610fd3565b600090505b9392505050565b600073ffffffffffffffffffffffffffffffffffffffff168373ffffffffffffffffffffffffffffffffffffffff160361101357600080fd5b81600460008673ffffffffffffffffffffffffffffffffffffffff1673ffffffffffffffffffffffffffffffffffffffff16815260200190815260200160002054101561105f57600080fd5b600460008473ffffffffffffffffffffffffffffffffffffffff1673ffffffffffffffffffffffffffffffffffffffff1681526020019081526020016000205482600460008673ffffffffffffffffffffffffffffffffffffffff1673ffffffffffffffffffffffffffffffffffffffff168152602001908152602001600020546110ea9190611903565b116110f457600080fd5b81600460008673ffffffffffffffffffffffffffffffffffffffff1673ffffffffffffffffffffffffffffffffffffffff168152602001908152602001600020600082825461114391906118cf565b9250508190555081600460008573ffffffffffffffffffffffffffffffffffffffff1673ffffffffffffffffffffffffffffffffffffffff16815260200190815260200160002060008282546111999190611903565b9250508190555060608190508373ffffffffffffffffffffffffffffffffffffffff168573ffffffffffffffffffffffffffffffffffffffff167fddf252ad1be2c89b69c2b068fc378daa952ba7f163c4a11628f55a4df523b3ef8560405161120291906115d5565b60405180910390a35050505050565b600080823b905060008111915050919050565b600061127633868686868080601f016020809104026020016040519081016040528093929190818152602001838380828437600081840152601f19601f82011690508083019250505050505050610fda565b60008590508073ffffffffffffffffffffffffffffffffffffffff1663c0ee0b8a338787876040518563ffffffff1660e01b81526004016112ba94939291906119b5565b600060405180830381600087803b1580156112d457600080fd5b505af11580156112e8573d6000803e3d6000fd5b505050506001915050949350505050565b600082825260208201905092915050565b7f646f6573206e6f74206163636570742065746800000000000000000000000000600082015250565b60006113406013836112f9565b915061134b8261130a565b602082019050919050565b6000602082019050818103600083015261136f81611333565b9050919050565b7f63616c6c6461746120646f6573206e6f74206d6174636820612066756e63746960008201527f6f6e000000000000000000000000000000000000000000000000000000000000602082015250565b60006113d26022836112f9565b91506113dd82611376565b604082019050919050565b60006020820190508181036000830152611401816113c5565b9050919050565b600081519050919050565b60005b83811015611431578082015181840152602081019050611416565b83811115611440576000848401525b50505050565b6000601f19601f8301169050919050565b600061146282611408565b61146c81856112f9565b935061147c818560208601611413565b61148581611446565b840191505092915050565b600060208201905081810360008301526114aa8184611457565b905092915050565b600080fd5b600080fd5b600073ffffffffffffffffffffffffffffffffffffffff82169050919050565b60006114e7826114bc565b9050919050565b6114f7816114dc565b811461150257600080fd5b50565b600081359050611514816114ee565b92915050565b6000819050919050565b61152d8161151a565b811461153857600080fd5b50565b60008135905061154a81611524565b92915050565b60008060408385031215611567576115666114b2565b5b600061157585828601611505565b92505060206115868582860161153b565b9150509250929050565b60008115159050919050565b6115a581611590565b82525050565b60006020820190506115c0600083018461159c565b92915050565b6115cf8161151a565b82525050565b60006020820190506115ea60008301846115c6565b92915050565b600080600060608486031215611609576116086114b2565b5b600061161786828701611505565b935050602061162886828701611505565b92505060406116398682870161153b565b9150509250925092565b600060ff82169050919050565b61165981611643565b82525050565b60006020820190506116746000830184611650565b92915050565b6000602082840312156116905761168f6114b2565b5b600061169e8482850161153b565b91505092915050565b6000602082840312156116bd576116bc6114b2565b5b60006116cb84828501611505565b91505092915050565b600080fd5b600080fd5b600080fd5b60008083601f8401126116f9576116f86116d4565b5b8235905067ffffffffffffffff811115611716576117156116d9565b5b602083019150836001820283011115611732576117316116de565b5b9250929050565b60008060008060608587031215611753576117526114b2565b5b600061176187828801611505565b94505060206117728782880161153b565b935050604085013567ffffffffffffffff811115611793576117926114b7565b5b61179f878288016116e3565b925092505092959194509250565b600080604083850312156117c4576117c36114b2565b5b60006117d285828601611505565b92505060206117e385828601611505565b9150509250929050565b600080600060608486031215611806576118056114b2565b5b600061181486828701611505565b93505060206118258682870161153b565b92505060406118368682870161153b565b9150509250925092565b7f4e487b7100000000000000000000000000000000000000000000000000000000600052602260045260246000fd5b6000600282049050600182168061188757607f821691505b60208210810361189a57611899611840565b5b50919050565b7f4e487b7100000000000000000000000000000000000000000000000000000000600052601160045260246000fd5b60006118da8261151a565b91506118e58361151a565b9250828210156118f8576118f76118a0565b5b828203905092915050565b600061190e8261151a565b91506119198361151a565b9250827fffffffffffffffffffffffffffffffffffffffffffffffffffffffffffffffff0382111561194e5761194d6118a0565b5b828201905092915050565b611962816114dc565b82525050565b600082825260208201905092915050565b82818337600083830152505050565b60006119948385611968565b93506119a1838584611979565b6119aa83611446565b840190509392505050565b60006060820190506119ca6000830187611959565b6119d760208301866115c6565b81810360408301526119ea818486611988565b90509594505050505056fea264697066735822122083d157f9d2fac794ce3aeae85fa61ee7829fb306a180ab35980a718e4a48476864736f6c634300080d0033",
  "immutableReferences": {},
  "source": "// SPDX-License-Identifier: UNLICENSED\r\n\r\npragma solidity ^0.8.13;\r\n\r\n// https://www.ethereum.org/token\r\ninterface ERC223TokenRecipient {\r\n    function receiveApproval( address from, uint256 value, bytes calldata data )\r\n    external;\r\n}\r\n\r\n// ERC223\r\ninterface ERC223ContractReceiver {\r\n    function tokenFallback( address from, uint value, bytes calldata data )\r\n    external;\r\n}\r\n\r\n// ERC223 token with added ERC20 and Ethereum-Token support\r\n//\r\n// Blend of multiple interfaces:\r\n// - https://theethereum.wiki/w/index.php/ERC20_Token_Standard\r\n// - https://www.ethereum.org/token (uncontrolled, non-standard)\r\n// - https://github.com/Dexaran/ERC23-tokens/\r\n\r\ncontract ERC223\r\n{\r\n    string  public name;\r\n    string  public symbol;\r\n    uint8   public decimals;\r\n    uint256 public totalSupply;\r\n\r\n    mapping( address => uint256 ) balances_;\r\n    mapping( address => mapping(address => uint256) ) allowances_;\r\n\r\n    // ERC20\r\n    event Approval( address indexed owner,\r\n                    address indexed spender,\r\n                    uint256 value );\r\n\r\n    event Transfer( address indexed from,\r\n                    address indexed to,\r\n                    uint256 value );\r\n\r\n    // Ethereum Token\r\n    event Burn( address indexed from, uint256 value );\r\n    event Mint( address indexed to, uint256 value );  \r\n\r\n    constructor(string memory tokenName, string memory tokenSymbol ) {\r\n        name = tokenName;\r\n        symbol = tokenSymbol;\r\n        decimals = 18;\r\n    }\r\n\r\n    receive() external payable { revert(\"does not accept eth\"); }\r\n    fallback() external payable { revert(\"calldata does not match a function\"); }\r\n\r\n    // ERC20\r\n    function balanceOf( address owner ) public view returns (uint) {\r\n        return balances_[owner];\r\n    }\r\n\r\n    // ERC20\r\n    //\r\n    // WARNING! When changing the approval amount, first set it back to zero\r\n    // AND wait until the transaction is mined. Only afterwards set the new\r\n    // amount. Otherwise you may be prone to a race condition attack.\r\n    // See: https://github.com/ethereum/EIPs/issues/20#issuecomment-263524729\r\n    function approve( address spender, uint256 value ) public returns (bool success) {\r\n        allowances_[msg.sender][spender] = value;\r\n        emit Approval( msg.sender, spender, value );\r\n        return true;\r\n    }\r\n    \r\n    // recommended fix for known attack on any ERC20\r\n    function safeApprove( address _spender,\r\n                          uint256 _currentValue,\r\n                          uint256 _value ) public returns (bool success) {\r\n\r\n        // If current allowance for _spender is equal to _currentValue, then\r\n        // overwrite it with _value and return true, otherwise return false.\r\n\r\n        if (allowances_[msg.sender][_spender] == _currentValue)\r\n            return approve(_spender, _value);\r\n\r\n        return false;\r\n    }\r\n\r\n    // ERC20\r\n    function allowance( address owner, address spender ) public view returns (uint256 remaining) {\r\n        return allowances_[owner][spender];\r\n    }\r\n\r\n    // ERC20\r\n    function transfer( address to, uint256 value ) virtual public returns (bool success) {\r\n        bytes memory empty; // null\r\n        _transfer( msg.sender, to, value, empty );\r\n        return true;\r\n    }\r\n\r\n    // ERC20\r\n    function transferFrom( address from, address to, uint256 value ) virtual public returns (bool success) {\r\n        require( value <= allowances_[from][msg.sender] );\r\n\r\n        allowances_[from][msg.sender] -= value;\r\n        bytes memory empty;\r\n        _transfer( from, to, value, empty );\r\n\r\n        return true;\r\n    }\r\n\r\n    // Ethereum Token\r\n    function approveAndCall( address spender,\r\n                            uint256 value,\r\n                            bytes calldata context ) public returns (bool success) {\r\n        if ( approve(spender, value) )\r\n        {\r\n            ERC223TokenRecipient recip = ERC223TokenRecipient( spender );\r\n            recip.receiveApproval( msg.sender, value, context );\r\n            return true;\r\n        }\r\n        return false;\r\n    }        \r\n\r\n    // Ethereum Token\r\n    function mint( uint256 value ) public returns (bool success) {\r\n        balances_[msg.sender] += value;\r\n        totalSupply += value;\r\n\r\n        emit Mint( msg.sender, value );\r\n        return true;\r\n    }\r\n\r\n    // Ethereum Token\r\n    function mintTo( address to, uint256 value ) public returns (bool success) {\r\n        balances_[to] += value;\r\n        totalSupply += value;\r\n\r\n        emit Mint( to, value );\r\n        return true;\r\n    }\r\n\r\n    // Ethereum Token\r\n    function burn( uint256 value ) public returns (bool success) {\r\n        require( balances_[msg.sender] >= value );\r\n        balances_[msg.sender] -= value;\r\n        totalSupply -= value;\r\n\r\n        emit Burn( msg.sender, value );\r\n        return true;\r\n    }\r\n\r\n    // Ethereum Token\r\n    function burnFrom( address from, uint256 value ) public returns (bool success) {\r\n        require( balances_[from] >= value );\r\n        require( value <= allowances_[from][msg.sender] );\r\n\r\n        balances_[from] -= value;\r\n        allowances_[from][msg.sender] -= value;\r\n        totalSupply -= value;\r\n\r\n        emit Burn( from, value );\r\n        return true;\r\n    }\r\n\r\n    function _transfer( address from,\r\n                        address to,\r\n                        uint value,\r\n                        bytes memory data ) internal {\r\n        require( to != address(0x0) );\r\n        require( balances_[from] >= value );\r\n        require( balances_[to] + value > balances_[to] ); // catch overflow\r\n\r\n        balances_[from] -= value;\r\n        balances_[to] += value;\r\n\r\n        //Transfer( from, to, value, data ); ERC223-compat version\r\n        bytes memory empty;\r\n        empty = data;\r\n        emit Transfer( from, to, value ); // ERC20-compat version\r\n    }\r\n\r\n    // ERC223 Transfer to a contract or externally-owned account\r\n    function transfer( address to, uint value, bytes calldata data ) public returns (bool success) {\r\n        if (isContract(to)) {\r\n        return transferToContract( to, value, data );\r\n        }\r\n\r\n        _transfer( msg.sender, to, value, data );\r\n        return true;\r\n    }\r\n\r\n    // ERC223 Transfer to contract and invoke tokenFallback() method\r\n    function transferToContract( address to, uint value, bytes calldata data ) private returns (bool success) {\r\n        _transfer( msg.sender, to, value, data );\r\n\r\n        ERC223ContractReceiver rx = ERC223ContractReceiver(to);\r\n        rx.tokenFallback(msg.sender, value, data);\r\n        return true;\r\n    }\r\n\r\n    // ERC223 Transfer and invoke specified callback\r\n    function transferToContract( address to,\r\n                       uint value,\r\n                       bytes calldata data,\r\n                       string calldata custom_fallback ) private returns (bool success) {\r\n        _transfer( msg.sender, to, value, data );\r\n\r\n        ERC223ContractReceiver rx = ERC223ContractReceiver( to );\r\n        (bool resok, bytes memory resdata) =\r\n            address(rx).call( abi.encodeWithSignature(custom_fallback,\r\n                            msg.sender, value, data) );\r\n\r\n        require( resok, \"custom fallback failed\" );\r\n        if (resdata.length > 0) {} // suppress warning\r\n\r\n        return true;\r\n    }\r\n\r\n    // ERC223 fetch contract size (must be nonzero to be a contract)\r\n    function isContract( address _addr ) internal view returns (bool) {\r\n        uint length;\r\n        assembly { length := extcodesize(_addr) }\r\n        return (length > 0);\r\n    }\r\n}\r\n",
  "sourcePath": "C:\\Users\\nimish\\Programs\\Courses\\Web3\\project-1-dex-swap\\contract\\contracts\\ERC223.sol",
  "compiler": {
    "name": "solc",
    "version": "0.8.13+commit.abaa5c0e.Emscripten.clang"
  },
  "schemaVersion": "3.4.7",
  "updatedAt": "2022-07-31T21:03:30.922Z",
  "devdoc": {
    "kind": "dev",
    "methods": {},
    "version": 1
  },
  "userdoc": {
    "kind": "user",
    "methods": {},
    "version": 1
  }
}