{
  "contractName": "NERC223",
  "abi": [
    {
      "inputs": [
        {
          "internalType": "string",
          "name": "name",
          "type": "string"
        },
        {
          "internalType": "string",
          "name": "symbol",
          "type": "string"
        }
      ],
      "stateMutability": "nonpayable",
      "type": "constructor"
    },
    {
      "anonymous": false,
      "inputs": [
        {
          "indexed": true,
          "internalType": "address",
          "name": "owner",
          "type": "address"
        },
        {
          "indexed": true,
          "internalType": "address",
          "name": "spender",
          "type": "address"
        },
        {
          "indexed": false,
          "internalType": "uint256",
          "name": "value",
          "type": "uint256"
        }
      ],
      "name": "Approval",
      "type": "event"
    },
    {
      "anonymous": false,
      "inputs": [
        {
          "indexed": true,
          "internalType": "address",
          "name": "from",
          "type": "address"
        },
        {
          "indexed": false,
          "internalType": "uint256",
          "name": "value",
          "type": "uint256"
        }
      ],
      "name": "Burn",
      "type": "event"
    },
    {
      "anonymous": false,
      "inputs": [
        {
          "indexed": true,
          "internalType": "address",
          "name": "to",
          "type": "address"
        },
        {
          "indexed": false,
          "internalType": "uint256",
          "name": "value",
          "type": "uint256"
        }
      ],
      "name": "Mint",
      "type": "event"
    },
    {
      "anonymous": false,
      "inputs": [
        {
          "indexed": true,
          "internalType": "address",
          "name": "from",
          "type": "address"
        },
        {
          "indexed": true,
          "internalType": "address",
          "name": "to",
          "type": "address"
        },
        {
          "indexed": false,
          "internalType": "uint256",
          "name": "value",
          "type": "uint256"
        }
      ],
      "name": "Transfer",
      "type": "event"
    },
    {
      "stateMutability": "payable",
      "type": "fallback"
    },
    {
      "inputs": [
        {
          "internalType": "address",
          "name": "owner",
          "type": "address"
        },
        {
          "internalType": "address",
          "name": "spender",
          "type": "address"
        }
      ],
      "name": "allowance",
      "outputs": [
        {
          "internalType": "uint256",
          "name": "remaining",
          "type": "uint256"
        }
      ],
      "stateMutability": "view",
      "type": "function"
    },
    {
      "inputs": [
        {
          "internalType": "address",
          "name": "spender",
          "type": "address"
        },
        {
          "internalType": "uint256",
          "name": "value",
          "type": "uint256"
        }
      ],
      "name": "approve",
      "outputs": [
        {
          "internalType": "bool",
          "name": "success",
          "type": "bool"
        }
      ],
      "stateMutability": "nonpayable",
      "type": "function"
    },
    {
      "inputs": [
        {
          "internalType": "address",
          "name": "spender",
          "type": "address"
        },
        {
          "internalType": "uint256",
          "name": "value",
          "type": "uint256"
        },
        {
          "internalType": "bytes",
          "name": "context",
          "type": "bytes"
        }
      ],
      "name": "approveAndCall",
      "outputs": [
        {
          "internalType": "bool",
          "name": "success",
          "type": "bool"
        }
      ],
      "stateMutability": "nonpayable",
      "type": "function"
    },
    {
      "inputs": [
        {
          "internalType": "address",
          "name": "owner",
          "type": "address"
        }
      ],
      "name": "balanceOf",
      "outputs": [
        {
          "internalType": "uint256",
          "name": "",
          "type": "uint256"
        }
      ],
      "stateMutability": "view",
      "type": "function"
    },
    {
      "inputs": [
        {
          "internalType": "uint256",
          "name": "value",
          "type": "uint256"
        }
      ],
      "name": "burn",
      "outputs": [
        {
          "internalType": "bool",
          "name": "success",
          "type": "bool"
        }
      ],
      "stateMutability": "nonpayable",
      "type": "function"
    },
    {
      "inputs": [
        {
          "internalType": "address",
          "name": "from",
          "type": "address"
        },
        {
          "internalType": "uint256",
          "name": "value",
          "type": "uint256"
        }
      ],
      "name": "burnFrom",
      "outputs": [
        {
          "internalType": "bool",
          "name": "success",
          "type": "bool"
        }
      ],
      "stateMutability": "nonpayable",
      "type": "function"
    },
    {
      "inputs": [],
      "name": "decimals",
      "outputs": [
        {
          "internalType": "uint8",
          "name": "",
          "type": "uint8"
        }
      ],
      "stateMutability": "view",
      "type": "function"
    },
    {
      "inputs": [
        {
          "internalType": "uint256",
          "name": "value",
          "type": "uint256"
        }
      ],
      "name": "mint",
      "outputs": [
        {
          "internalType": "bool",
          "name": "success",
          "type": "bool"
        }
      ],
      "stateMutability": "nonpayable",
      "type": "function"
    },
    {
      "inputs": [
        {
          "internalType": "address",
          "name": "to",
          "type": "address"
        },
        {
          "internalType": "uint256",
          "name": "value",
          "type": "uint256"
        }
      ],
      "name": "mintTo",
      "outputs": [
        {
          "internalType": "bool",
          "name": "success",
          "type": "bool"
        }
      ],
      "stateMutability": "nonpayable",
      "type": "function"
    },
    {
      "inputs": [],
      "name": "name",
      "outputs": [
        {
          "internalType": "string",
          "name": "",
          "type": "string"
        }
      ],
      "stateMutability": "view",
      "type": "function"
    },
    {
      "inputs": [
        {
          "internalType": "address",
          "name": "_spender",
          "type": "address"
        },
        {
          "internalType": "uint256",
          "name": "_currentValue",
          "type": "uint256"
        },
        {
          "internalType": "uint256",
          "name": "_value",
          "type": "uint256"
        }
      ],
      "name": "safeApprove",
      "outputs": [
        {
          "internalType": "bool",
          "name": "success",
          "type": "bool"
        }
      ],
      "stateMutability": "nonpayable",
      "type": "function"
    },
    {
      "inputs": [],
      "name": "symbol",
      "outputs": [
        {
          "internalType": "string",
          "name": "",
          "type": "string"
        }
      ],
      "stateMutability": "view",
      "type": "function"
    },
    {
      "inputs": [],
      "name": "totalSupply",
      "outputs": [
        {
          "internalType": "uint256",
          "name": "",
          "type": "uint256"
        }
      ],
      "stateMutability": "view",
      "type": "function"
    },
    {
      "stateMutability": "payable",
      "type": "receive"
    },
    {
      "inputs": [
        {
          "internalType": "address",
          "name": "to",
          "type": "address"
        },
        {
          "internalType": "uint256",
          "name": "value",
          "type": "uint256"
        }
      ],
      "name": "transfer",
      "outputs": [
        {
          "internalType": "bool",
          "name": "success",
          "type": "bool"
        }
      ],
      "stateMutability": "nonpayable",
      "type": "function"
    },
    {
      "inputs": [
        {
          "internalType": "address",
          "name": "to",
          "type": "address"
        },
        {
          "internalType": "uint256",
          "name": "value",
          "type": "uint256"
        },
        {
          "internalType": "bytes",
          "name": "data",
          "type": "bytes"
        }
      ],
      "name": "transfer",
      "outputs": [
        {
          "internalType": "bool",
          "name": "success",
          "type": "bool"
        }
      ],
      "stateMutability": "nonpayable",
      "type": "function"
    },
    {
      "inputs": [
        {
          "internalType": "address",
          "name": "from",
          "type": "address"
        },
        {
          "internalType": "address",
          "name": "to",
          "type": "address"
        },
        {
          "internalType": "uint256",
          "name": "value",
          "type": "uint256"
        }
      ],
      "name": "transferFrom",
      "outputs": [
        {
          "internalType": "bool",
          "name": "success",
          "type": "bool"
        }
      ],
      "stateMutability": "nonpayable",
      "type": "function"
    },
    {
      "inputs": [
        {
          "internalType": "address",
          "name": "from",
          "type": "address"
        },
        {
          "internalType": "address",
          "name": "to",
          "type": "address"
        },
        {
          "internalType": "uint256",
          "name": "value",
          "type": "uint256"
        },
        {
          "internalType": "bool",
          "name": "swapCall",
          "type": "bool"
        }
      ],
      "name": "_transferFrom",
      "outputs": [
        {
          "internalType": "bool",
          "name": "success",
          "type": "bool"
        }
      ],
      "stateMutability": "nonpayable",
      "type": "function"
    }
  ],
  "bytecode": "0x60806040523480156200001157600080fd5b5060405162002157380380620021578339818101604052810190620000379190620002de565b818181600090805190602001906200005192919062000091565b5080600190805190602001906200006a92919062000091565b506012600260006101000a81548160ff021916908360ff16021790555050505050620003c7565b8280546200009f9062000392565b90600052602060002090601f016020900481019282620000c357600085556200010f565b82601f10620000de57805160ff19168380011785556200010f565b828001600101855582156200010f579182015b828111156200010e578251825591602001919060010190620000f1565b5b5090506200011e919062000122565b5090565b5b808211156200013d57600081600090555060010162000123565b5090565b6000604051905090565b600080fd5b600080fd5b600080fd5b600080fd5b6000601f19601f8301169050919050565b7f4e487b7100000000000000000000000000000000000000000000000000000000600052604160045260246000fd5b620001aa826200015f565b810181811067ffffffffffffffff82111715620001cc57620001cb62000170565b5b80604052505050565b6000620001e162000141565b9050620001ef82826200019f565b919050565b600067ffffffffffffffff82111562000212576200021162000170565b5b6200021d826200015f565b9050602081019050919050565b60005b838110156200024a5780820151818401526020810190506200022d565b838111156200025a576000848401525b50505050565b6000620002776200027184620001f4565b620001d5565b9050828152602081018484840111156200029657620002956200015a565b5b620002a38482856200022a565b509392505050565b600082601f830112620002c357620002c262000155565b5b8151620002d584826020860162000260565b91505092915050565b60008060408385031215620002f857620002f76200014b565b5b600083015167ffffffffffffffff81111562000319576200031862000150565b5b6200032785828601620002ab565b925050602083015167ffffffffffffffff8111156200034b576200034a62000150565b5b6200035985828601620002ab565b9150509250929050565b7f4e487b7100000000000000000000000000000000000000000000000000000000600052602260045260246000fd5b60006002820490506001821680620003ab57607f821691505b602082108103620003c157620003c062000363565b5b50919050565b611d8080620003d76000396000f3fe6080604052600436106101025760003560e01c806370a0823111610095578063a9059cbb11610064578063a9059cbb14610411578063be45fd621461044e578063cae9ca511461048b578063dd62ed3e146104c8578063f65036621461050557610142565b806370a082311461032f57806379cc67901461036c57806395d89b41146103a9578063a0712d68146103d457610142565b806323b872dd116100d157806323b872dd1461024d578063313ce5671461028a57806342966c68146102b5578063449a52f8146102f257610142565b806306fdde031461017d578063095ea7b3146101a857806318160ddd146101e5578063208fae921461021057610142565b36610142576040517f08c379a0000000000000000000000000000000000000000000000000000000008152600401610139906115d3565b60405180910390fd5b6040517f08c379a000000000000000000000000000000000000000000000000000000000815260040161017490611665565b60405180910390fd5b34801561018957600080fd5b50610192610542565b60405161019f919061170d565b60405180910390f35b3480156101b457600080fd5b506101cf60048036038101906101ca91906117cd565b6105d0565b6040516101dc9190611828565b60405180910390f35b3480156101f157600080fd5b506101fa6106c2565b6040516102079190611852565b60405180910390f35b34801561021c57600080fd5b5061023760048036038101906102329190611899565b6106c8565b6040516102449190611828565b60405180910390f35b34801561025957600080fd5b50610274600480360381019061026f9190611900565b610823565b6040516102819190611828565b60405180910390f35b34801561029657600080fd5b5061029f61097e565b6040516102ac919061196f565b60405180910390f35b3480156102c157600080fd5b506102dc60048036038101906102d7919061198a565b610991565b6040516102e99190611828565b60405180910390f35b3480156102fe57600080fd5b50610319600480360381019061031491906117cd565b610aa5565b6040516103269190611828565b60405180910390f35b34801561033b57600080fd5b50610356600480360381019061035191906119b7565b610b6e565b6040516103639190611852565b60405180910390f35b34801561037857600080fd5b50610393600480360381019061038e91906117cd565b610bb7565b6040516103a09190611828565b60405180910390f35b3480156103b557600080fd5b506103be610de8565b6040516103cb919061170d565b60405180910390f35b3480156103e057600080fd5b506103fb60048036038101906103f6919061198a565b610e76565b6040516104089190611828565b60405180910390f35b34801561041d57600080fd5b50610438600480360381019061043391906117cd565b610f3e565b6040516104459190611828565b60405180910390f35b34801561045a57600080fd5b5061047560048036038101906104709190611a49565b610f7c565b6040516104829190611828565b60405180910390f35b34801561049757600080fd5b506104b260048036038101906104ad9190611a49565b610ffc565b6040516104bf9190611828565b60405180910390f35b3480156104d457600080fd5b506104ef60048036038101906104ea9190611abd565b61109a565b6040516104fc9190611852565b60405180910390f35b34801561051157600080fd5b5061052c60048036038101906105279190611afd565b611121565b6040516105399190611828565b60405180910390f35b6000805461054f90611b7f565b80601f016020809104026020016040519081016040528092919081815260200182805461057b90611b7f565b80156105c85780601f1061059d576101008083540402835291602001916105c8565b820191906000526020600020905b8154815290600101906020018083116105ab57829003601f168201915b505050505081565b600081600560003373ffffffffffffffffffffffffffffffffffffffff1673ffffffffffffffffffffffffffffffffffffffff16815260200190815260200160002060008573ffffffffffffffffffffffffffffffffffffffff1673ffffffffffffffffffffffffffffffffffffffff168152602001908152602001600020819055508273ffffffffffffffffffffffffffffffffffffffff163373ffffffffffffffffffffffffffffffffffffffff167f8c5be1e5ebec7d5bd14f71427d1e84f3dd0314c0f7b2291e5b200ac8c7c3b925846040516106b09190611852565b60405180910390a36001905092915050565b60035481565b6000600560008673ffffffffffffffffffffffffffffffffffffffff1673ffffffffffffffffffffffffffffffffffffffff16815260200190815260200160002060003373ffffffffffffffffffffffffffffffffffffffff1673ffffffffffffffffffffffffffffffffffffffff1681526020019081526020016000205483111561075357600080fd5b82600560008773ffffffffffffffffffffffffffffffffffffffff1673ffffffffffffffffffffffffffffffffffffffff16815260200190815260200160002060003373ffffffffffffffffffffffffffffffffffffffff1673ffffffffffffffffffffffffffffffffffffffff16815260200190815260200160002060008282546107df9190611bdf565b925050819055506107ef846111c3565b1561080757610800858585856111d6565b905061081b565b60606108158686868461126a565b60019150505b949350505050565b6000600560008573ffffffffffffffffffffffffffffffffffffffff1673ffffffffffffffffffffffffffffffffffffffff16815260200190815260200160002060003373ffffffffffffffffffffffffffffffffffffffff1673ffffffffffffffffffffffffffffffffffffffff168152602001908152602001600020548211156108ae57600080fd5b81600560008673ffffffffffffffffffffffffffffffffffffffff1673ffffffffffffffffffffffffffffffffffffffff16815260200190815260200160002060003373ffffffffffffffffffffffffffffffffffffffff1673ffffffffffffffffffffffffffffffffffffffff168152602001908152602001600020600082825461093a9190611bdf565b9250508190555061094a836111c3565b156109635761095c84848460006111d6565b9050610977565b60606109718585858461126a565b60019150505b9392505050565b600260009054906101000a900460ff1681565b600081600460003373ffffffffffffffffffffffffffffffffffffffff1673ffffffffffffffffffffffffffffffffffffffff1681526020019081526020016000205410156109df57600080fd5b81600460003373ffffffffffffffffffffffffffffffffffffffff1673ffffffffffffffffffffffffffffffffffffffff1681526020019081526020016000206000828254610a2e9190611bdf565b925050819055508160036000828254610a479190611bdf565b925050819055503373ffffffffffffffffffffffffffffffffffffffff167fcc16f5dbb4873280815c1ee09dbd06736cffcc184412cf7a71a0fdb75d397ca583604051610a949190611852565b60405180910390a260019050919050565b600081600460008573ffffffffffffffffffffffffffffffffffffffff1673ffffffffffffffffffffffffffffffffffffffff1681526020019081526020016000206000828254610af69190611c13565b925050819055508160036000828254610b0f9190611c13565b925050819055508273ffffffffffffffffffffffffffffffffffffffff167f0f6798a560793a54c3bcfe86a93cde1e73087d944c0ea20544137d412139688583604051610b5c9190611852565b60405180910390a26001905092915050565b6000600460008373ffffffffffffffffffffffffffffffffffffffff1673ffffffffffffffffffffffffffffffffffffffff168152602001908152602001600020549050919050565b600081600460008573ffffffffffffffffffffffffffffffffffffffff1673ffffffffffffffffffffffffffffffffffffffff168152602001908152602001600020541015610c0557600080fd5b600560008473ffffffffffffffffffffffffffffffffffffffff1673ffffffffffffffffffffffffffffffffffffffff16815260200190815260200160002060003373ffffffffffffffffffffffffffffffffffffffff1673ffffffffffffffffffffffffffffffffffffffff16815260200190815260200160002054821115610c8e57600080fd5b81600460008573ffffffffffffffffffffffffffffffffffffffff1673ffffffffffffffffffffffffffffffffffffffff1681526020019081526020016000206000828254610cdd9190611bdf565b9250508190555081600560008573ffffffffffffffffffffffffffffffffffffffff1673ffffffffffffffffffffffffffffffffffffffff16815260200190815260200160002060003373ffffffffffffffffffffffffffffffffffffffff1673ffffffffffffffffffffffffffffffffffffffff1681526020019081526020016000206000828254610d709190611bdf565b925050819055508160036000828254610d899190611bdf565b925050819055508273ffffffffffffffffffffffffffffffffffffffff167fcc16f5dbb4873280815c1ee09dbd06736cffcc184412cf7a71a0fdb75d397ca583604051610dd69190611852565b60405180910390a26001905092915050565b60018054610df590611b7f565b80601f0160208091040260200160405190810160405280929190818152602001828054610e2190611b7f565b8015610e6e5780601f10610e4357610100808354040283529160200191610e6e565b820191906000526020600020905b815481529060010190602001808311610e5157829003601f168201915b505050505081565b600081600460003373ffffffffffffffffffffffffffffffffffffffff1673ffffffffffffffffffffffffffffffffffffffff1681526020019081526020016000206000828254610ec79190611c13565b925050819055508160036000828254610ee09190611c13565b925050819055503373ffffffffffffffffffffffffffffffffffffffff167f0f6798a560793a54c3bcfe86a93cde1e73087d944c0ea20544137d412139688583604051610f2d9190611852565b60405180910390a260019050919050565b6000610f49836111c3565b15610f6257610f5b33848460006111d6565b9050610f76565b6060610f703385858461126a565b60019150505b92915050565b6000610f87856111c3565b15610f9f57610f98858585856114a1565b9050610ff4565b610fef33868686868080601f016020809104026020016040519081016040528093929190818152602001838380828437600081840152601f19601f8201169050808301925050505050505061126a565b600190505b949350505050565b600061100885856105d0565b1561108d5760008590508073ffffffffffffffffffffffffffffffffffffffff1663a2d57853338787876040518563ffffffff1660e01b81526004016110519493929190611cc5565b600060405180830381600087803b15801561106b57600080fd5b505af115801561107f573d6000803e3d6000fd5b505050506001915050611092565b600090505b949350505050565b6000600560008473ffffffffffffffffffffffffffffffffffffffff1673ffffffffffffffffffffffffffffffffffffffff16815260200190815260200160002060008373ffffffffffffffffffffffffffffffffffffffff1673ffffffffffffffffffffffffffffffffffffffff16815260200190815260200160002054905092915050565b600082600560003373ffffffffffffffffffffffffffffffffffffffff1673ffffffffffffffffffffffffffffffffffffffff16815260200190815260200160002060008673ffffffffffffffffffffffffffffffffffffffff1673ffffffffffffffffffffffffffffffffffffffff16815260200190815260200160002054036111b7576111b084836105d0565b90506111bc565b600090505b9392505050565b600080823b905060008111915050919050565b600060606111e68686868461126a565b60008590508073ffffffffffffffffffffffffffffffffffffffff1663ee3f3538888730886040518563ffffffff1660e01b815260040161122a9493929190611d05565b600060405180830381600087803b15801561124457600080fd5b505af1158015611258573d6000803e3d6000fd5b50505050600192505050949350505050565b600073ffffffffffffffffffffffffffffffffffffffff168373ffffffffffffffffffffffffffffffffffffffff16036112a357600080fd5b81600460008673ffffffffffffffffffffffffffffffffffffffff1673ffffffffffffffffffffffffffffffffffffffff1681526020019081526020016000205410156112ef57600080fd5b600460008473ffffffffffffffffffffffffffffffffffffffff1673ffffffffffffffffffffffffffffffffffffffff1681526020019081526020016000205482600460008673ffffffffffffffffffffffffffffffffffffffff1673ffffffffffffffffffffffffffffffffffffffff1681526020019081526020016000205461137a9190611c13565b1161138457600080fd5b81600460008673ffffffffffffffffffffffffffffffffffffffff1673ffffffffffffffffffffffffffffffffffffffff16815260200190815260200160002060008282546113d39190611bdf565b9250508190555081600460008573ffffffffffffffffffffffffffffffffffffffff1673ffffffffffffffffffffffffffffffffffffffff16815260200190815260200160002060008282546114299190611c13565b9250508190555060608190508373ffffffffffffffffffffffffffffffffffffffff168573ffffffffffffffffffffffffffffffffffffffff167fddf252ad1be2c89b69c2b068fc378daa952ba7f163c4a11628f55a4df523b3ef856040516114929190611852565b60405180910390a35050505050565b60006114f333868686868080601f016020809104026020016040519081016040528093929190818152602001838380828437600081840152601f19601f8201169050808301925050505050505061126a565b60008590508073ffffffffffffffffffffffffffffffffffffffff1663c0ee0b8a338787876040518563ffffffff1660e01b81526004016115379493929190611cc5565b600060405180830381600087803b15801561155157600080fd5b505af1158015611565573d6000803e3d6000fd5b505050506001915050949350505050565b600082825260208201905092915050565b7f646f6573206e6f74206163636570742065746800000000000000000000000000600082015250565b60006115bd601383611576565b91506115c882611587565b602082019050919050565b600060208201905081810360008301526115ec816115b0565b9050919050565b7f63616c6c6461746120646f6573206e6f74206d6174636820612066756e63746960008201527f6f6e000000000000000000000000000000000000000000000000000000000000602082015250565b600061164f602283611576565b915061165a826115f3565b604082019050919050565b6000602082019050818103600083015261167e81611642565b9050919050565b600081519050919050565b60005b838110156116ae578082015181840152602081019050611693565b838111156116bd576000848401525b50505050565b6000601f19601f8301169050919050565b60006116df82611685565b6116e98185611576565b93506116f9818560208601611690565b611702816116c3565b840191505092915050565b6000602082019050818103600083015261172781846116d4565b905092915050565b600080fd5b600080fd5b600073ffffffffffffffffffffffffffffffffffffffff82169050919050565b600061176482611739565b9050919050565b61177481611759565b811461177f57600080fd5b50565b6000813590506117918161176b565b92915050565b6000819050919050565b6117aa81611797565b81146117b557600080fd5b50565b6000813590506117c7816117a1565b92915050565b600080604083850312156117e4576117e361172f565b5b60006117f285828601611782565b9250506020611803858286016117b8565b9150509250929050565b60008115159050919050565b6118228161180d565b82525050565b600060208201905061183d6000830184611819565b92915050565b61184c81611797565b82525050565b60006020820190506118676000830184611843565b92915050565b6118768161180d565b811461188157600080fd5b50565b6000813590506118938161186d565b92915050565b600080600080608085870312156118b3576118b261172f565b5b60006118c187828801611782565b94505060206118d287828801611782565b93505060406118e3878288016117b8565b92505060606118f487828801611884565b91505092959194509250565b6000806000606084860312156119195761191861172f565b5b600061192786828701611782565b935050602061193886828701611782565b9250506040611949868287016117b8565b9150509250925092565b600060ff82169050919050565b61196981611953565b82525050565b60006020820190506119846000830184611960565b92915050565b6000602082840312156119a05761199f61172f565b5b60006119ae848285016117b8565b91505092915050565b6000602082840312156119cd576119cc61172f565b5b60006119db84828501611782565b91505092915050565b600080fd5b600080fd5b600080fd5b60008083601f840112611a0957611a086119e4565b5b8235905067ffffffffffffffff811115611a2657611a256119e9565b5b602083019150836001820283011115611a4257611a416119ee565b5b9250929050565b60008060008060608587031215611a6357611a6261172f565b5b6000611a7187828801611782565b9450506020611a82878288016117b8565b935050604085013567ffffffffffffffff811115611aa357611aa2611734565b5b611aaf878288016119f3565b925092505092959194509250565b60008060408385031215611ad457611ad361172f565b5b6000611ae285828601611782565b9250506020611af385828601611782565b9150509250929050565b600080600060608486031215611b1657611b1561172f565b5b6000611b2486828701611782565b9350506020611b35868287016117b8565b9250506040611b46868287016117b8565b9150509250925092565b7f4e487b7100000000000000000000000000000000000000000000000000000000600052602260045260246000fd5b60006002820490506001821680611b9757607f821691505b602082108103611baa57611ba9611b50565b5b50919050565b7f4e487b7100000000000000000000000000000000000000000000000000000000600052601160045260246000fd5b6000611bea82611797565b9150611bf583611797565b925082821015611c0857611c07611bb0565b5b828203905092915050565b6000611c1e82611797565b9150611c2983611797565b9250827fffffffffffffffffffffffffffffffffffffffffffffffffffffffffffffffff03821115611c5e57611c5d611bb0565b5b828201905092915050565b611c7281611759565b82525050565b600082825260208201905092915050565b82818337600083830152505050565b6000611ca48385611c78565b9350611cb1838584611c89565b611cba836116c3565b840190509392505050565b6000606082019050611cda6000830187611c69565b611ce76020830186611843565b8181036040830152611cfa818486611c98565b905095945050505050565b6000608082019050611d1a6000830187611c69565b611d276020830186611843565b611d346040830185611c69565b611d416060830184611819565b9594505050505056fea264697066735822122023004fa6a25d84bb6c169717f6c6415948392df74553d2f7a49ce310420c6b9a64736f6c634300080d0033",
  "immutableReferences": {},
  "source": "// SPDX-License-Identifier: MIT\r\n\r\npragma solidity ^0.8.13;\r\n\r\nimport \"./ERC223.sol\";\r\n\r\n// NERC223 factory\r\ncontract NERC223Factory {\r\n    address[] private _deployedTokens;\r\n    mapping(address => string) private _addressToSymbol; // TOKEN_ADDR >> SYMBOL\r\n    mapping(string => address) private _symbolToAddress; // SYMBOL >> TOKEN_ADDR\r\n\r\n    function createToken(string memory name, string memory symbol) public {\r\n        NERC223 token = new NERC223(name, symbol);\r\n        address tokenAddress = address(token);\r\n        _deployedTokens.push(tokenAddress);\r\n        _addressToSymbol[tokenAddress] = symbol;\r\n        _symbolToAddress[symbol] =tokenAddress;\r\n    }\r\n\r\n    function getTokens() public view returns(address[] memory) {\r\n        return _deployedTokens;\r\n    }\r\n\r\n    function getSymbol(address tokenAddress) public view returns(string memory) {\r\n        return _addressToSymbol[tokenAddress];\r\n    }\r\n\r\n    function getAddress(string calldata symbol) public view returns(address) {\r\n        return _symbolToAddress[symbol];\r\n    }\r\n}\r\n\r\n// NERC223 Receiver Interface\r\ninterface NERC223ContractReceiver is ERC223ContractReceiver {\r\n    function tokenAddressFallback( address from, uint value, address tokenAddress, bool swapCall ) external;\r\n}\r\n\r\ncontract NERC223 is ERC223 {\r\n    constructor(string memory name, string memory symbol) ERC223(name, symbol) {}\r\n\r\n    // NERC223 Transfer to a contract or externally-owned account\r\n    function transfer(address to, uint value) override public returns (bool success) {\r\n        if (isContract(to)) {\r\n            return _transferTokenToContract(msg.sender, to, value, false);\r\n        }\r\n        bytes memory empty;\r\n        _transfer( msg.sender, to, value, empty );\r\n        return true;\r\n    }\r\n\r\n    // NERC223 Transfer from address to a contract or externally-owned account\r\n    function transferFrom(address from, address to, uint256 value) override public returns (bool success) {\r\n        require( value <= allowances_[from][msg.sender] );\r\n        allowances_[from][msg.sender] -= value;\r\n\r\n        if (isContract(to)) {\r\n            return _transferTokenToContract(from, to, value, false);\r\n        }\r\n        bytes memory empty;\r\n        _transfer( from, to, value, empty );\r\n        return true;\r\n    }\r\n\r\n    // NERC223 Transfer from address to a contract or externally-owned account \r\n    // (with internal call flag which enables minting LP)\r\n    function _transferFrom(address from, address to, uint256 value, bool swapCall) public returns (bool success) {\r\n        require( value <= allowances_[from][msg.sender] );\r\n        allowances_[from][msg.sender] -= value;\r\n\r\n        if (isContract(to)) {\r\n            return _transferTokenToContract(from, to, value, swapCall);\r\n        }\r\n        bytes memory empty;\r\n        _transfer( from, to, value, empty );\r\n        return true;\r\n    }\r\n\r\n    // NERC223 Transfer to contract and invoke tokenAddressFallback() method\r\n    function _transferTokenToContract(address from, address to, uint value, bool swapCall) private returns (bool success) {\r\n        bytes memory empty;\r\n        _transfer( from, to, value, empty );\r\n\r\n        NERC223ContractReceiver rx = NERC223ContractReceiver(to);\r\n        rx.tokenAddressFallback(from, value, address(this), swapCall); // token address\r\n        return true;\r\n    }\r\n\r\n    /*\r\n    TRANSACTIONS:\r\n        mint\r\n        mintTo\r\n        burn\r\n        burnFrom\r\n        approve\r\n        approveAndCall\r\n        safeApprove\r\n        transfer\r\n        transfer\r\n        transferFrom\r\n\r\n    CALLS:\r\n        name\r\n        symbol\r\n        totalSupply\r\n        deimals\r\n        allowance\r\n        balanceOf\r\n     */\r\n}",
  "sourcePath": "C:\\Users\\nimish\\Programs\\Courses\\Web3\\project-1-dex-swap\\contract\\contracts\\NERC223.sol",
  "compiler": {
    "name": "solc",
    "version": "0.8.13+commit.abaa5c0e.Emscripten.clang"
  },
  "schemaVersion": "3.4.7",
  "updatedAt": "2022-08-01T10:04:55.803Z",
  "devdoc": {
    "kind": "dev",
    "methods": {},
    "version": 1
  },
  "userdoc": {
    "kind": "user",
    "methods": {},
    "version": 1
  }
}