{
  "contractName": "NERC223Swap",
  "abi": [
    {
      "inputs": [
        {
          "internalType": "string",
          "name": "_poolName",
          "type": "string"
        },
        {
          "internalType": "address",
          "name": "_helperAddress",
          "type": "address"
        },
        {
          "internalType": "string",
          "name": "_tokenSymbolLP",
          "type": "string"
        }
      ],
      "stateMutability": "nonpayable",
      "type": "constructor"
    },
    {
      "inputs": [],
      "name": "poolName",
      "outputs": [
        {
          "internalType": "string",
          "name": "",
          "type": "string"
        }
      ],
      "stateMutability": "view",
      "type": "function",
      "constant": true
    },
    {
      "inputs": [
        {
          "internalType": "address",
          "name": "_user",
          "type": "address"
        },
        {
          "internalType": "string",
          "name": "_symbol",
          "type": "string"
        }
      ],
      "name": "getDeposits",
      "outputs": [
        {
          "internalType": "uint256",
          "name": "",
          "type": "uint256"
        }
      ],
      "stateMutability": "view",
      "type": "function",
      "constant": true
    },
    {
      "inputs": [
        {
          "internalType": "address",
          "name": "from",
          "type": "address"
        },
        {
          "internalType": "uint256",
          "name": "value",
          "type": "uint256"
        },
        {
          "internalType": "bytes",
          "name": "data",
          "type": "bytes"
        }
      ],
      "name": "tokenFallback",
      "outputs": [],
      "stateMutability": "nonpayable",
      "type": "function"
    },
    {
      "inputs": [
        {
          "internalType": "address",
          "name": "from",
          "type": "address"
        },
        {
          "internalType": "uint256",
          "name": "value",
          "type": "uint256"
        },
        {
          "internalType": "address",
          "name": "tokenAddress",
          "type": "address"
        },
        {
          "internalType": "bool",
          "name": "swapCall",
          "type": "bool"
        }
      ],
      "name": "tokenAddressFallback",
      "outputs": [],
      "stateMutability": "nonpayable",
      "type": "function"
    },
    {
      "inputs": [
        {
          "internalType": "string",
          "name": "_symbol",
          "type": "string"
        },
        {
          "internalType": "uint256",
          "name": "_value",
          "type": "uint256"
        }
      ],
      "name": "withdrawToken",
      "outputs": [],
      "stateMutability": "nonpayable",
      "type": "function"
    },
    {
      "inputs": [
        {
          "internalType": "string",
          "name": "_symbolIn",
          "type": "string"
        },
        {
          "internalType": "string",
          "name": "_symbolOut",
          "type": "string"
        },
        {
          "internalType": "uint256",
          "name": "_valueIn",
          "type": "uint256"
        },
        {
          "internalType": "uint256",
          "name": "_valueOut",
          "type": "uint256"
        }
      ],
      "name": "swapTokens",
      "outputs": [],
      "stateMutability": "nonpayable",
      "type": "function"
    }
  ],
  "bytecode": "0x60806040523480156200001157600080fd5b5060405162001c6538038062001c658339818101604052810190620000379190620004aa565b82600490805190602001906200004f929190620001f8565b5081600360006101000a81548173ffffffffffffffffffffffffffffffffffffffff021916908373ffffffffffffffffffffffffffffffffffffffff1602179055508060009080519060200190620000a9929190620001f8565b50600360009054906101000a900473ffffffffffffffffffffffffffffffffffffffff1673ffffffffffffffffffffffffffffffffffffffff1663c409123660006040518263ffffffff1660e01b81526004016200010891906200065a565b602060405180830381865afa15801562000126573d6000803e3d6000fd5b505050506040513d601f19601f820116820180604052508101906200014c91906200067e565b600160006101000a81548173ffffffffffffffffffffffffffffffffffffffff021916908373ffffffffffffffffffffffffffffffffffffffff160217905550600160009054906101000a900473ffffffffffffffffffffffffffffffffffffffff16600260006101000a81548173ffffffffffffffffffffffffffffffffffffffff021916908373ffffffffffffffffffffffffffffffffffffffff160217905550505050620006b0565b828054620002069062000573565b90600052602060002090601f0160209004810192826200022a576000855562000276565b82601f106200024557805160ff191683800117855562000276565b8280016001018555821562000276579182015b828111156200027557825182559160200191906001019062000258565b5b50905062000285919062000289565b5090565b5b80821115620002a45760008160009055506001016200028a565b5090565b6000604051905090565b600080fd5b600080fd5b600080fd5b600080fd5b6000601f19601f8301169050919050565b7f4e487b7100000000000000000000000000000000000000000000000000000000600052604160045260246000fd5b6200031182620002c6565b810181811067ffffffffffffffff82111715620003335762000332620002d7565b5b80604052505050565b600062000348620002a8565b905062000356828262000306565b919050565b600067ffffffffffffffff821115620003795762000378620002d7565b5b6200038482620002c6565b9050602081019050919050565b60005b83811015620003b157808201518184015260208101905062000394565b83811115620003c1576000848401525b50505050565b6000620003de620003d8846200035b565b6200033c565b905082815260208101848484011115620003fd57620003fc620002c1565b5b6200040a84828562000391565b509392505050565b600082601f8301126200042a5762000429620002bc565b5b81516200043c848260208601620003c7565b91505092915050565b600073ffffffffffffffffffffffffffffffffffffffff82169050919050565b6000620004728262000445565b9050919050565b620004848162000465565b81146200049057600080fd5b50565b600081519050620004a48162000479565b92915050565b600080600060608486031215620004c657620004c5620002b2565b5b600084015167ffffffffffffffff811115620004e757620004e6620002b7565b5b620004f58682870162000412565b9350506020620005088682870162000493565b925050604084015167ffffffffffffffff8111156200052c576200052b620002b7565b5b6200053a8682870162000412565b9150509250925092565b7f4e487b7100000000000000000000000000000000000000000000000000000000600052602260045260246000fd5b600060028204905060018216806200058c57607f821691505b602082108103620005a257620005a162000544565b5b50919050565b600082825260208201905092915050565b60008190508160005260206000209050919050565b60008154620005dd8162000573565b620005e98186620005a8565b945060018216600081146200060757600181146200061a5762000651565b60ff198316865260208601935062000651565b6200062585620005b9565b60005b83811015620006495781548189015260018201915060208101905062000628565b808801955050505b50505092915050565b60006020820190508181036000830152620006768184620005ce565b905092915050565b600060208284031215620006975762000696620002b2565b5b6000620006a78482850162000493565b91505092915050565b6115a580620006c06000396000f3fe608060405234801561001057600080fd5b50600436106100625760003560e01c80632dcb33de14610067578063acc23b2b14610083578063c0ee0b8a146100b3578063c97a413a146100cf578063ee3f3538146100eb578063f3466dfa14610107575b600080fd5b610081600480360381019061007c9190610c20565b610125565b005b61009d60048036038101906100989190610d25565b610483565b6040516100aa9190610d94565b60405180910390f35b6100cd60048036038101906100c89190610e05565b6104ec565b005b6100e960048036038101906100e49190610e79565b6104f2565b005b61010560048036038101906101009190610f11565b610504565b005b61010f610516565b60405161011c9190611011565b60405180910390f35b6000600360009054906101000a900473ffffffffffffffffffffffffffffffffffffffff1673ffffffffffffffffffffffffffffffffffffffff1663c409123688886040518363ffffffff1660e01b815260040161018492919061106f565b602060405180830381865afa1580156101a1573d6000803e3d6000fd5b505050506040513d601f19601f820116820180604052508101906101c591906110a8565b90506000819050838173ffffffffffffffffffffffffffffffffffffffff1663dd62ed3e33306040518363ffffffff1660e01b81526004016102089291906110e4565b602060405180830381865afa158015610225573d6000803e3d6000fd5b505050506040513d601f19601f820116820180604052508101906102499190611122565b101561025457600080fd5b82600360009054906101000a900473ffffffffffffffffffffffffffffffffffffffff1673ffffffffffffffffffffffffffffffffffffffff1663f19416543089896040518463ffffffff1660e01b81526004016102b49392919061114f565b602060405180830381865afa1580156102d1573d6000803e3d6000fd5b505050506040513d601f19601f820116820180604052508101906102f59190611122565b101561030057600080fd5b8073ffffffffffffffffffffffffffffffffffffffff1663208fae9233308760016040518563ffffffff1660e01b81526004016103409493929190611190565b6020604051808303816000875af115801561035f573d6000803e3d6000fd5b505050506040513d601f19601f8201168201806040525081019061038391906111ea565b5083600560003373ffffffffffffffffffffffffffffffffffffffff1673ffffffffffffffffffffffffffffffffffffffff16815260200190815260200160002089896040516103d4929190611247565b908152602001604051809103902060008282546103f1919061128f565b9250508190555082600560003373ffffffffffffffffffffffffffffffffffffffff1673ffffffffffffffffffffffffffffffffffffffff1681526020019081526020016000208787604051610448929190611247565b9081526020016040518091039020600082825461046591906112c3565b9250508190555061047986868560016105a4565b5050505050505050565b6000600560008573ffffffffffffffffffffffffffffffffffffffff1673ffffffffffffffffffffffffffffffffffffffff16815260200190815260200160002083836040516104d4929190611247565b90815260200160405180910390205490509392505050565b50505050565b6104ff83838360006105a4565b505050565b610510848484846109ac565b50505050565b6004805461052390611348565b80601f016020809104026020016040519081016040528092919081815260200182805461054f90611348565b801561059c5780601f106105715761010080835404028352916020019161059c565b820191906000526020600020905b81548152906001019060200180831161057f57829003601f168201915b505050505081565b81600360009054906101000a900473ffffffffffffffffffffffffffffffffffffffff1673ffffffffffffffffffffffffffffffffffffffff1663f19416543087876040518463ffffffff1660e01b81526004016106049392919061114f565b602060405180830381865afa158015610621573d6000803e3d6000fd5b505050506040513d601f19601f820116820180604052508101906106459190611122565b1161064f57600080fd5b81600560003373ffffffffffffffffffffffffffffffffffffffff1673ffffffffffffffffffffffffffffffffffffffff168152602001908152602001600020858560405161069f929190611247565b90815260200160405180910390205410156106b957600080fd5b81600260009054906101000a900473ffffffffffffffffffffffffffffffffffffffff1673ffffffffffffffffffffffffffffffffffffffff1663dd62ed3e33306040518363ffffffff1660e01b81526004016107179291906110e4565b602060405180830381865afa158015610734573d6000803e3d6000fd5b505050506040513d601f19601f820116820180604052508101906107589190611122565b101561076357600080fd5b81600560003373ffffffffffffffffffffffffffffffffffffffff1673ffffffffffffffffffffffffffffffffffffffff16815260200190815260200160002085856040516107b3929190611247565b908152602001604051809103902060008282546107d0919061128f565b925050819055506000600360009054906101000a900473ffffffffffffffffffffffffffffffffffffffff1673ffffffffffffffffffffffffffffffffffffffff1663c409123686866040518363ffffffff1660e01b815260040161083692919061106f565b602060405180830381865afa158015610853573d6000803e3d6000fd5b505050506040513d601f19601f8201168201806040525081019061087791906110a8565b905060008190508073ffffffffffffffffffffffffffffffffffffffff1663a9059cbb33866040518363ffffffff1660e01b81526004016108b9929190611379565b6020604051808303816000875af11580156108d8573d6000803e3d6000fd5b505050506040513d601f19601f820116820180604052508101906108fc91906111ea565b50826109a457600260009054906101000a900473ffffffffffffffffffffffffffffffffffffffff1673ffffffffffffffffffffffffffffffffffffffff166379cc679033866040518363ffffffff1660e01b815260040161095f929190611379565b6020604051808303816000875af115801561097e573d6000803e3d6000fd5b505050506040513d601f19601f820116820180604052508101906109a291906111ea565b505b505050505050565b6000600360009054906101000a900473ffffffffffffffffffffffffffffffffffffffff1673ffffffffffffffffffffffffffffffffffffffff166381a73ad5846040518263ffffffff1660e01b8152600401610a0991906113a2565b600060405180830381865afa158015610a26573d6000803e3d6000fd5b505050506040513d6000823e3d601f19601f82011682018060405250810190610a4f91906114de565b905083600560008773ffffffffffffffffffffffffffffffffffffffff1673ffffffffffffffffffffffffffffffffffffffff16815260200190815260200160002082604051610a9f9190611558565b90815260200160405180910390206000828254610abc91906112c3565b9250508190555081610b6a57600260009054906101000a900473ffffffffffffffffffffffffffffffffffffffff1673ffffffffffffffffffffffffffffffffffffffff1663449a52f886866040518363ffffffff1660e01b8152600401610b25929190611379565b6020604051808303816000875af1158015610b44573d6000803e3d6000fd5b505050506040513d601f19601f82011682018060405250810190610b6891906111ea565b505b5050505050565b6000604051905090565b600080fd5b600080fd5b600080fd5b600080fd5b600080fd5b60008083601f840112610baa57610ba9610b85565b5b8235905067ffffffffffffffff811115610bc757610bc6610b8a565b5b602083019150836001820283011115610be357610be2610b8f565b5b9250929050565b6000819050919050565b610bfd81610bea565b8114610c0857600080fd5b50565b600081359050610c1a81610bf4565b92915050565b60008060008060008060808789031215610c3d57610c3c610b7b565b5b600087013567ffffffffffffffff811115610c5b57610c5a610b80565b5b610c6789828a01610b94565b9650965050602087013567ffffffffffffffff811115610c8a57610c89610b80565b5b610c9689828a01610b94565b94509450506040610ca989828a01610c0b565b9250506060610cba89828a01610c0b565b9150509295509295509295565b600073ffffffffffffffffffffffffffffffffffffffff82169050919050565b6000610cf282610cc7565b9050919050565b610d0281610ce7565b8114610d0d57600080fd5b50565b600081359050610d1f81610cf9565b92915050565b600080600060408486031215610d3e57610d3d610b7b565b5b6000610d4c86828701610d10565b935050602084013567ffffffffffffffff811115610d6d57610d6c610b80565b5b610d7986828701610b94565b92509250509250925092565b610d8e81610bea565b82525050565b6000602082019050610da96000830184610d85565b92915050565b60008083601f840112610dc557610dc4610b85565b5b8235905067ffffffffffffffff811115610de257610de1610b8a565b5b602083019150836001820283011115610dfe57610dfd610b8f565b5b9250929050565b60008060008060608587031215610e1f57610e1e610b7b565b5b6000610e2d87828801610d10565b9450506020610e3e87828801610c0b565b935050604085013567ffffffffffffffff811115610e5f57610e5e610b80565b5b610e6b87828801610daf565b925092505092959194509250565b600080600060408486031215610e9257610e91610b7b565b5b600084013567ffffffffffffffff811115610eb057610eaf610b80565b5b610ebc86828701610b94565b93509350506020610ecf86828701610c0b565b9150509250925092565b60008115159050919050565b610eee81610ed9565b8114610ef957600080fd5b50565b600081359050610f0b81610ee5565b92915050565b60008060008060808587031215610f2b57610f2a610b7b565b5b6000610f3987828801610d10565b9450506020610f4a87828801610c0b565b9350506040610f5b87828801610d10565b9250506060610f6c87828801610efc565b91505092959194509250565b600081519050919050565b600082825260208201905092915050565b60005b83811015610fb2578082015181840152602081019050610f97565b83811115610fc1576000848401525b50505050565b6000601f19601f8301169050919050565b6000610fe382610f78565b610fed8185610f83565b9350610ffd818560208601610f94565b61100681610fc7565b840191505092915050565b6000602082019050818103600083015261102b8184610fd8565b905092915050565b82818337600083830152505050565b600061104e8385610f83565b935061105b838584611033565b61106483610fc7565b840190509392505050565b6000602082019050818103600083015261108a818486611042565b90509392505050565b6000815190506110a281610cf9565b92915050565b6000602082840312156110be576110bd610b7b565b5b60006110cc84828501611093565b91505092915050565b6110de81610ce7565b82525050565b60006040820190506110f960008301856110d5565b61110660208301846110d5565b9392505050565b60008151905061111c81610bf4565b92915050565b60006020828403121561113857611137610b7b565b5b60006111468482850161110d565b91505092915050565b600060408201905061116460008301866110d5565b8181036020830152611177818486611042565b9050949350505050565b61118a81610ed9565b82525050565b60006080820190506111a560008301876110d5565b6111b260208301866110d5565b6111bf6040830185610d85565b6111cc6060830184611181565b95945050505050565b6000815190506111e481610ee5565b92915050565b600060208284031215611200576111ff610b7b565b5b600061120e848285016111d5565b91505092915050565b600081905092915050565b600061122e8385611217565b935061123b838584611033565b82840190509392505050565b6000611254828486611222565b91508190509392505050565b7f4e487b7100000000000000000000000000000000000000000000000000000000600052601160045260246000fd5b600061129a82610bea565b91506112a583610bea565b9250828210156112b8576112b7611260565b5b828203905092915050565b60006112ce82610bea565b91506112d983610bea565b9250827fffffffffffffffffffffffffffffffffffffffffffffffffffffffffffffffff0382111561130e5761130d611260565b5b828201905092915050565b7f4e487b7100000000000000000000000000000000000000000000000000000000600052602260045260246000fd5b6000600282049050600182168061136057607f821691505b60208210810361137357611372611319565b5b50919050565b600060408201905061138e60008301856110d5565b61139b6020830184610d85565b9392505050565b60006020820190506113b760008301846110d5565b92915050565b600080fd5b7f4e487b7100000000000000000000000000000000000000000000000000000000600052604160045260246000fd5b6113fa82610fc7565b810181811067ffffffffffffffff82111715611419576114186113c2565b5b80604052505050565b600061142c610b71565b905061143882826113f1565b919050565b600067ffffffffffffffff821115611458576114576113c2565b5b61146182610fc7565b9050602081019050919050565b600061148161147c8461143d565b611422565b90508281526020810184848401111561149d5761149c6113bd565b5b6114a8848285610f94565b509392505050565b600082601f8301126114c5576114c4610b85565b5b81516114d584826020860161146e565b91505092915050565b6000602082840312156114f4576114f3610b7b565b5b600082015167ffffffffffffffff81111561151257611511610b80565b5b61151e848285016114b0565b91505092915050565b600061153282610f78565b61153c8185611217565b935061154c818560208601610f94565b80840191505092915050565b60006115648284611527565b91508190509291505056fea2646970667358221220c619bff7d6b663b2a0393ab267338f27dbc4209a42233ac8aa433332429e70a064736f6c634300080d0033",
  "immutableReferences": {},
  "source": "// SPDX-License-Identifier: MIT\r\n\r\npragma solidity ^0.8.13;\r\n\r\nimport \"./NERC223.sol\";\r\nimport \"./NERC223Helper.sol\";\r\n\r\ncontract NERC223Swap is NERC223ContractReceiver {\r\n\r\n    string private tokenSymbolLP;\r\n    address payable tokenAddressLP;\r\n    NERC223 private tokenLP;\r\n    NERC223Helper private helper;\r\n\r\n    string public poolName;\r\n    mapping(address => mapping(string => uint)) private deposits; // USER_ADDR >> SYMBOL >> AMOUNT\r\n\r\n    constructor(string memory _poolName, address _helperAddress, string memory _tokenSymbolLP) {\r\n        poolName = _poolName;\r\n        helper = NERC223Helper(_helperAddress);\r\n        tokenSymbolLP = _tokenSymbolLP;\r\n        tokenAddressLP = payable(helper.getTokenAddress(tokenSymbolLP));\r\n        tokenLP = NERC223(tokenAddressLP);\r\n    }\r\n\r\n    function getDeposits(address _user, string calldata _symbol) public view returns(uint) {\r\n        return deposits[_user][_symbol];\r\n    }\r\n\r\n    // ERC223 fallback not overridden\r\n    function tokenFallback(address from, uint value, bytes calldata data) external {}\r\n\r\n    function tokenAddressFallback(address from, uint value, address tokenAddress, bool swapCall) external {\r\n        _depositToken(from, value, tokenAddress, swapCall);\r\n    }\r\n\r\n    ////// gas: 1000000\r\n    // user sending money to deposit to contract initiates a callback\r\n    // contract registers deposit into user's account\r\n    // contract mints LP token to user.\r\n    function _depositToken(address _from, uint _value, address _tokenAddress, bool swapCall) private {\r\n        // deposit to contract (++ valueIn)\r\n        string memory _symbol = helper.getTokenSymbol(_tokenAddress);\r\n        deposits[_from][_symbol] += _value;\r\n        // mint LP token to user\r\n        if (!swapCall) {\r\n            tokenLP.mintTo(_from, _value);\r\n        }\r\n    }\r\n\r\n    // withdrawing: user has to approve contract to use `value` worth LP tokens\r\n    // contract can send user `value` worth deposited symbol\r\n    // contract burns LP token from user\r\n    function withdrawToken(string calldata _symbol, uint _value) public {\r\n        _withdrawToken(_symbol, _value, false);\r\n    }\r\n    function _withdrawToken(string calldata _symbol, uint _value, bool swapCall) private {\r\n        // checks\r\n        require(helper.getTokenBalance(address(this), _symbol) > _value);\r\n        require(deposits[msg.sender][_symbol] >= _value);\r\n        require(tokenLP.allowance(msg.sender, address(this)) >= _value);\r\n        // update local values\r\n        deposits[msg.sender][_symbol] -= _value;\r\n        // transfer out to user\r\n        address payable _tokenAddress = payable(helper.getTokenAddress(_symbol));\r\n        NERC223 token = NERC223(_tokenAddress);\r\n        token.transfer(msg.sender, _value);\r\n        // burn LP token from user\r\n        if (!swapCall) {\r\n            tokenLP.burnFrom(msg.sender, _value);\r\n        }\r\n    }\r\n\r\n    // user has to approve contract to pull `valueIn`\r\n    // contract can send user `valueOut`\r\n    // swap calls 2 transferFrom() (USER > CONTRACT, CONTRACT > USER)\r\n    function swapTokens(string calldata _symbolIn, string calldata _symbolOut, uint _valueIn, uint _valueOut) external {\r\n        address payable _tokenAddressIn = payable(helper.getTokenAddress(_symbolIn));\r\n        NERC223 tokenIn = NERC223(_tokenAddressIn);\r\n        // checks\r\n        // how to make sure valueOut isn't corrupted (ie user isnt cheated)\r\n        require(tokenIn.allowance(msg.sender, address(this)) >= _valueIn);\r\n        require(helper.getTokenBalance(address(this), _symbolOut) >= _valueOut);\r\n        // swap\r\n        tokenIn._transferFrom(msg.sender, address(this), _valueIn, true); // _symbolIn += _valueIn, swapCall = true\r\n        // tokenAddressFallback > depositToken(_symbol1, valueIn) ^ ABOVE LINE ^\r\n        deposits[msg.sender][_symbolIn] -= _valueIn;\r\n        deposits[msg.sender][_symbolOut] += _valueOut;\r\n        _withdrawToken(_symbolOut, _valueOut, true); // _symbolOut += _valueOut, swapCall = true\r\n    }\r\n}",
  "sourcePath": "C:\\Users\\nimish\\Programs\\Courses\\Web3\\project-1-dex-swap\\contract\\contracts\\NERC223Swap.sol",
  "compiler": {
    "name": "solc",
    "version": "0.8.13+commit.abaa5c0e.Emscripten.clang"
  },
  "schemaVersion": "3.4.7",
  "updatedAt": "2022-08-08T21:32:04.851Z",
  "networkType": "ethereum",
  "devdoc": {
    "kind": "dev",
    "methods": {},
    "version": 1
  },
  "userdoc": {
    "kind": "user",
    "methods": {},
    "version": 1
  }
}