{
  "contractName": "NERC233",
  "abi": [
    {
      "inputs": [
        {
          "internalType": "string",
          "name": "name",
          "type": "string"
        },
        {
          "internalType": "string",
          "name": "symbol",
          "type": "string"
        }
      ],
      "stateMutability": "nonpayable",
      "type": "constructor"
    },
    {
      "anonymous": false,
      "inputs": [
        {
          "indexed": true,
          "internalType": "address",
          "name": "owner",
          "type": "address"
        },
        {
          "indexed": true,
          "internalType": "address",
          "name": "spender",
          "type": "address"
        },
        {
          "indexed": false,
          "internalType": "uint256",
          "name": "value",
          "type": "uint256"
        }
      ],
      "name": "Approval",
      "type": "event"
    },
    {
      "anonymous": false,
      "inputs": [
        {
          "indexed": true,
          "internalType": "address",
          "name": "from",
          "type": "address"
        },
        {
          "indexed": false,
          "internalType": "uint256",
          "name": "value",
          "type": "uint256"
        }
      ],
      "name": "Burn",
      "type": "event"
    },
    {
      "anonymous": false,
      "inputs": [
        {
          "indexed": true,
          "internalType": "address",
          "name": "to",
          "type": "address"
        },
        {
          "indexed": false,
          "internalType": "uint256",
          "name": "value",
          "type": "uint256"
        }
      ],
      "name": "Mint",
      "type": "event"
    },
    {
      "anonymous": false,
      "inputs": [
        {
          "indexed": true,
          "internalType": "address",
          "name": "from",
          "type": "address"
        },
        {
          "indexed": true,
          "internalType": "address",
          "name": "to",
          "type": "address"
        },
        {
          "indexed": false,
          "internalType": "uint256",
          "name": "value",
          "type": "uint256"
        }
      ],
      "name": "Transfer",
      "type": "event"
    },
    {
      "stateMutability": "payable",
      "type": "fallback"
    },
    {
      "inputs": [
        {
          "internalType": "address",
          "name": "owner",
          "type": "address"
        },
        {
          "internalType": "address",
          "name": "spender",
          "type": "address"
        }
      ],
      "name": "allowance",
      "outputs": [
        {
          "internalType": "uint256",
          "name": "remaining",
          "type": "uint256"
        }
      ],
      "stateMutability": "view",
      "type": "function"
    },
    {
      "inputs": [
        {
          "internalType": "address",
          "name": "spender",
          "type": "address"
        },
        {
          "internalType": "uint256",
          "name": "value",
          "type": "uint256"
        }
      ],
      "name": "approve",
      "outputs": [
        {
          "internalType": "bool",
          "name": "success",
          "type": "bool"
        }
      ],
      "stateMutability": "nonpayable",
      "type": "function"
    },
    {
      "inputs": [
        {
          "internalType": "address",
          "name": "spender",
          "type": "address"
        },
        {
          "internalType": "uint256",
          "name": "value",
          "type": "uint256"
        },
        {
          "internalType": "bytes",
          "name": "context",
          "type": "bytes"
        }
      ],
      "name": "approveAndCall",
      "outputs": [
        {
          "internalType": "bool",
          "name": "success",
          "type": "bool"
        }
      ],
      "stateMutability": "nonpayable",
      "type": "function"
    },
    {
      "inputs": [
        {
          "internalType": "address",
          "name": "owner",
          "type": "address"
        }
      ],
      "name": "balanceOf",
      "outputs": [
        {
          "internalType": "uint256",
          "name": "",
          "type": "uint256"
        }
      ],
      "stateMutability": "view",
      "type": "function"
    },
    {
      "inputs": [
        {
          "internalType": "uint256",
          "name": "value",
          "type": "uint256"
        }
      ],
      "name": "burn",
      "outputs": [
        {
          "internalType": "bool",
          "name": "success",
          "type": "bool"
        }
      ],
      "stateMutability": "nonpayable",
      "type": "function"
    },
    {
      "inputs": [
        {
          "internalType": "address",
          "name": "from",
          "type": "address"
        },
        {
          "internalType": "uint256",
          "name": "value",
          "type": "uint256"
        }
      ],
      "name": "burnFrom",
      "outputs": [
        {
          "internalType": "bool",
          "name": "success",
          "type": "bool"
        }
      ],
      "stateMutability": "nonpayable",
      "type": "function"
    },
    {
      "inputs": [],
      "name": "decimals",
      "outputs": [
        {
          "internalType": "uint8",
          "name": "",
          "type": "uint8"
        }
      ],
      "stateMutability": "view",
      "type": "function"
    },
    {
      "inputs": [
        {
          "internalType": "uint256",
          "name": "value",
          "type": "uint256"
        }
      ],
      "name": "mint",
      "outputs": [
        {
          "internalType": "bool",
          "name": "success",
          "type": "bool"
        }
      ],
      "stateMutability": "nonpayable",
      "type": "function"
    },
    {
      "inputs": [
        {
          "internalType": "address",
          "name": "to",
          "type": "address"
        },
        {
          "internalType": "uint256",
          "name": "value",
          "type": "uint256"
        }
      ],
      "name": "mintTo",
      "outputs": [
        {
          "internalType": "bool",
          "name": "success",
          "type": "bool"
        }
      ],
      "stateMutability": "nonpayable",
      "type": "function"
    },
    {
      "inputs": [],
      "name": "name",
      "outputs": [
        {
          "internalType": "string",
          "name": "",
          "type": "string"
        }
      ],
      "stateMutability": "view",
      "type": "function"
    },
    {
      "inputs": [
        {
          "internalType": "address",
          "name": "_spender",
          "type": "address"
        },
        {
          "internalType": "uint256",
          "name": "_currentValue",
          "type": "uint256"
        },
        {
          "internalType": "uint256",
          "name": "_value",
          "type": "uint256"
        }
      ],
      "name": "safeApprove",
      "outputs": [
        {
          "internalType": "bool",
          "name": "success",
          "type": "bool"
        }
      ],
      "stateMutability": "nonpayable",
      "type": "function"
    },
    {
      "inputs": [],
      "name": "symbol",
      "outputs": [
        {
          "internalType": "string",
          "name": "",
          "type": "string"
        }
      ],
      "stateMutability": "view",
      "type": "function"
    },
    {
      "inputs": [],
      "name": "totalSupply",
      "outputs": [
        {
          "internalType": "uint256",
          "name": "",
          "type": "uint256"
        }
      ],
      "stateMutability": "view",
      "type": "function"
    },
    {
      "stateMutability": "payable",
      "type": "receive"
    },
    {
      "inputs": [
        {
          "internalType": "address",
          "name": "to",
          "type": "address"
        },
        {
          "internalType": "uint256",
          "name": "value",
          "type": "uint256"
        }
      ],
      "name": "transfer",
      "outputs": [
        {
          "internalType": "bool",
          "name": "success",
          "type": "bool"
        }
      ],
      "stateMutability": "nonpayable",
      "type": "function"
    },
    {
      "inputs": [
        {
          "internalType": "address",
          "name": "to",
          "type": "address"
        },
        {
          "internalType": "uint256",
          "name": "value",
          "type": "uint256"
        },
        {
          "internalType": "bytes",
          "name": "data",
          "type": "bytes"
        }
      ],
      "name": "transfer",
      "outputs": [
        {
          "internalType": "bool",
          "name": "success",
          "type": "bool"
        }
      ],
      "stateMutability": "nonpayable",
      "type": "function"
    },
    {
      "inputs": [
        {
          "internalType": "address",
          "name": "from",
          "type": "address"
        },
        {
          "internalType": "address",
          "name": "to",
          "type": "address"
        },
        {
          "internalType": "uint256",
          "name": "value",
          "type": "uint256"
        }
      ],
      "name": "transferFrom",
      "outputs": [
        {
          "internalType": "bool",
          "name": "success",
          "type": "bool"
        }
      ],
      "stateMutability": "nonpayable",
      "type": "function"
    }
  ],
  "bytecode": "0x60806040523480156200001157600080fd5b5060405162001f0c38038062001f0c8339818101604052810190620000379190620002de565b818181600090805190602001906200005192919062000091565b5080600190805190602001906200006a92919062000091565b506012600260006101000a81548160ff021916908360ff16021790555050505050620003c7565b8280546200009f9062000392565b90600052602060002090601f016020900481019282620000c357600085556200010f565b82601f10620000de57805160ff19168380011785556200010f565b828001600101855582156200010f579182015b828111156200010e578251825591602001919060010190620000f1565b5b5090506200011e919062000122565b5090565b5b808211156200013d57600081600090555060010162000123565b5090565b6000604051905090565b600080fd5b600080fd5b600080fd5b600080fd5b6000601f19601f8301169050919050565b7f4e487b7100000000000000000000000000000000000000000000000000000000600052604160045260246000fd5b620001aa826200015f565b810181811067ffffffffffffffff82111715620001cc57620001cb62000170565b5b80604052505050565b6000620001e162000141565b9050620001ef82826200019f565b919050565b600067ffffffffffffffff82111562000212576200021162000170565b5b6200021d826200015f565b9050602081019050919050565b60005b838110156200024a5780820151818401526020810190506200022d565b838111156200025a576000848401525b50505050565b6000620002776200027184620001f4565b620001d5565b9050828152602081018484840111156200029657620002956200015a565b5b620002a38482856200022a565b509392505050565b600082601f830112620002c357620002c262000155565b5b8151620002d584826020860162000260565b91505092915050565b60008060408385031215620002f857620002f76200014b565b5b600083015167ffffffffffffffff81111562000319576200031862000150565b5b6200032785828601620002ab565b925050602083015167ffffffffffffffff8111156200034b576200034a62000150565b5b6200035985828601620002ab565b9150509250929050565b7f4e487b7100000000000000000000000000000000000000000000000000000000600052602260045260246000fd5b60006002820490506001821680620003ab57607f821691505b602082108103620003c157620003c062000363565b5b50919050565b611b3580620003d76000396000f3fe6080604052600436106100f75760003560e01c806379cc67901161008a578063be45fd6211610059578063be45fd6214610406578063cae9ca5114610443578063dd62ed3e14610480578063f6503662146104bd57610137565b806379cc67901461032457806395d89b4114610361578063a0712d681461038c578063a9059cbb146103c957610137565b8063313ce567116100c6578063313ce5671461024257806342966c681461026d578063449a52f8146102aa57806370a08231146102e757610137565b806306fdde0314610172578063095ea7b31461019d57806318160ddd146101da57806323b872dd1461020557610137565b36610137576040517f08c379a000000000000000000000000000000000000000000000000000000000815260040161012e90611429565b60405180910390fd5b6040517f08c379a0000000000000000000000000000000000000000000000000000000008152600401610169906114bb565b60405180910390fd5b34801561017e57600080fd5b506101876104fa565b6040516101949190611563565b60405180910390f35b3480156101a957600080fd5b506101c460048036038101906101bf9190611623565b610588565b6040516101d1919061167e565b60405180910390f35b3480156101e657600080fd5b506101ef61067a565b6040516101fc91906116a8565b60405180910390f35b34801561021157600080fd5b5061022c600480360381019061022791906116c3565b610680565b604051610239919061167e565b60405180910390f35b34801561024e57600080fd5b506102576107d9565b6040516102649190611732565b60405180910390f35b34801561027957600080fd5b50610294600480360381019061028f919061174d565b6107ec565b6040516102a1919061167e565b60405180910390f35b3480156102b657600080fd5b506102d160048036038101906102cc9190611623565b610900565b6040516102de919061167e565b60405180910390f35b3480156102f357600080fd5b5061030e6004803603810190610309919061177a565b6109c9565b60405161031b91906116a8565b60405180910390f35b34801561033057600080fd5b5061034b60048036038101906103469190611623565b610a12565b604051610358919061167e565b60405180910390f35b34801561036d57600080fd5b50610376610c43565b6040516103839190611563565b60405180910390f35b34801561039857600080fd5b506103b360048036038101906103ae919061174d565b610cd1565b6040516103c0919061167e565b60405180910390f35b3480156103d557600080fd5b506103f060048036038101906103eb9190611623565b610d99565b6040516103fd919061167e565b60405180910390f35b34801561041257600080fd5b5061042d6004803603810190610428919061180c565b610dd5565b60405161043a919061167e565b60405180910390f35b34801561044f57600080fd5b5061046a6004803603810190610465919061180c565b610e55565b604051610477919061167e565b60405180910390f35b34801561048c57600080fd5b506104a760048036038101906104a29190611880565b610ef3565b6040516104b491906116a8565b60405180910390f35b3480156104c957600080fd5b506104e460048036038101906104df91906118c0565b610f7a565b6040516104f1919061167e565b60405180910390f35b6000805461050790611942565b80601f016020809104026020016040519081016040528092919081815260200182805461053390611942565b80156105805780601f1061055557610100808354040283529160200191610580565b820191906000526020600020905b81548152906001019060200180831161056357829003601f168201915b505050505081565b600081600560003373ffffffffffffffffffffffffffffffffffffffff1673ffffffffffffffffffffffffffffffffffffffff16815260200190815260200160002060008573ffffffffffffffffffffffffffffffffffffffff1673ffffffffffffffffffffffffffffffffffffffff168152602001908152602001600020819055508273ffffffffffffffffffffffffffffffffffffffff163373ffffffffffffffffffffffffffffffffffffffff167f8c5be1e5ebec7d5bd14f71427d1e84f3dd0314c0f7b2291e5b200ac8c7c3b9258460405161066891906116a8565b60405180910390a36001905092915050565b60035481565b6000600560008573ffffffffffffffffffffffffffffffffffffffff1673ffffffffffffffffffffffffffffffffffffffff16815260200190815260200160002060003373ffffffffffffffffffffffffffffffffffffffff1673ffffffffffffffffffffffffffffffffffffffff1681526020019081526020016000205482111561070b57600080fd5b81600560008673ffffffffffffffffffffffffffffffffffffffff1673ffffffffffffffffffffffffffffffffffffffff16815260200190815260200160002060003373ffffffffffffffffffffffffffffffffffffffff1673ffffffffffffffffffffffffffffffffffffffff168152602001908152602001600020600082825461079791906119a2565b925050819055506107a78361101c565b156107be576107b784848461102f565b90506107d2565b60606107cc858585846110c0565b60019150505b9392505050565b600260009054906101000a900460ff1681565b600081600460003373ffffffffffffffffffffffffffffffffffffffff1673ffffffffffffffffffffffffffffffffffffffff16815260200190815260200160002054101561083a57600080fd5b81600460003373ffffffffffffffffffffffffffffffffffffffff1673ffffffffffffffffffffffffffffffffffffffff168152602001908152602001600020600082825461088991906119a2565b9250508190555081600360008282546108a291906119a2565b925050819055503373ffffffffffffffffffffffffffffffffffffffff167fcc16f5dbb4873280815c1ee09dbd06736cffcc184412cf7a71a0fdb75d397ca5836040516108ef91906116a8565b60405180910390a260019050919050565b600081600460008573ffffffffffffffffffffffffffffffffffffffff1673ffffffffffffffffffffffffffffffffffffffff168152602001908152602001600020600082825461095191906119d6565b92505081905550816003600082825461096a91906119d6565b925050819055508273ffffffffffffffffffffffffffffffffffffffff167f0f6798a560793a54c3bcfe86a93cde1e73087d944c0ea20544137d4121396885836040516109b791906116a8565b60405180910390a26001905092915050565b6000600460008373ffffffffffffffffffffffffffffffffffffffff1673ffffffffffffffffffffffffffffffffffffffff168152602001908152602001600020549050919050565b600081600460008573ffffffffffffffffffffffffffffffffffffffff1673ffffffffffffffffffffffffffffffffffffffff168152602001908152602001600020541015610a6057600080fd5b600560008473ffffffffffffffffffffffffffffffffffffffff1673ffffffffffffffffffffffffffffffffffffffff16815260200190815260200160002060003373ffffffffffffffffffffffffffffffffffffffff1673ffffffffffffffffffffffffffffffffffffffff16815260200190815260200160002054821115610ae957600080fd5b81600460008573ffffffffffffffffffffffffffffffffffffffff1673ffffffffffffffffffffffffffffffffffffffff1681526020019081526020016000206000828254610b3891906119a2565b9250508190555081600560008573ffffffffffffffffffffffffffffffffffffffff1673ffffffffffffffffffffffffffffffffffffffff16815260200190815260200160002060003373ffffffffffffffffffffffffffffffffffffffff1673ffffffffffffffffffffffffffffffffffffffff1681526020019081526020016000206000828254610bcb91906119a2565b925050819055508160036000828254610be491906119a2565b925050819055508273ffffffffffffffffffffffffffffffffffffffff167fcc16f5dbb4873280815c1ee09dbd06736cffcc184412cf7a71a0fdb75d397ca583604051610c3191906116a8565b60405180910390a26001905092915050565b60018054610c5090611942565b80601f0160208091040260200160405190810160405280929190818152602001828054610c7c90611942565b8015610cc95780601f10610c9e57610100808354040283529160200191610cc9565b820191906000526020600020905b815481529060010190602001808311610cac57829003601f168201915b505050505081565b600081600460003373ffffffffffffffffffffffffffffffffffffffff1673ffffffffffffffffffffffffffffffffffffffff1681526020019081526020016000206000828254610d2291906119d6565b925050819055508160036000828254610d3b91906119d6565b925050819055503373ffffffffffffffffffffffffffffffffffffffff167f0f6798a560793a54c3bcfe86a93cde1e73087d944c0ea20544137d412139688583604051610d8891906116a8565b60405180910390a260019050919050565b6000610da48361101c565b15610dbb57610db433848461102f565b9050610dcf565b6060610dc9338585846110c0565b60019150505b92915050565b6000610de08561101c565b15610df857610df1858585856112f7565b9050610e4d565b610e4833868686868080601f016020809104026020016040519081016040528093929190818152602001838380828437600081840152601f19601f820116905080830192505050505050506110c0565b600190505b949350505050565b6000610e618585610588565b15610ee65760008590508073ffffffffffffffffffffffffffffffffffffffff1663a2d57853338787876040518563ffffffff1660e01b8152600401610eaa9493929190611a88565b600060405180830381600087803b158015610ec457600080fd5b505af1158015610ed8573d6000803e3d6000fd5b505050506001915050610eeb565b600090505b949350505050565b6000600560008473ffffffffffffffffffffffffffffffffffffffff1673ffffffffffffffffffffffffffffffffffffffff16815260200190815260200160002060008373ffffffffffffffffffffffffffffffffffffffff1673ffffffffffffffffffffffffffffffffffffffff16815260200190815260200160002054905092915050565b600082600560003373ffffffffffffffffffffffffffffffffffffffff1673ffffffffffffffffffffffffffffffffffffffff16815260200190815260200160002060008673ffffffffffffffffffffffffffffffffffffffff1673ffffffffffffffffffffffffffffffffffffffff1681526020019081526020016000205403611010576110098483610588565b9050611015565b600090505b9392505050565b600080823b905060008111915050919050565b6000606061103f858585846110c0565b60008490508073ffffffffffffffffffffffffffffffffffffffff166353200d768786306040518463ffffffff1660e01b815260040161108193929190611ac8565b600060405180830381600087803b15801561109b57600080fd5b505af11580156110af573d6000803e3d6000fd5b505050506001925050509392505050565b600073ffffffffffffffffffffffffffffffffffffffff168373ffffffffffffffffffffffffffffffffffffffff16036110f957600080fd5b81600460008673ffffffffffffffffffffffffffffffffffffffff1673ffffffffffffffffffffffffffffffffffffffff16815260200190815260200160002054101561114557600080fd5b600460008473ffffffffffffffffffffffffffffffffffffffff1673ffffffffffffffffffffffffffffffffffffffff1681526020019081526020016000205482600460008673ffffffffffffffffffffffffffffffffffffffff1673ffffffffffffffffffffffffffffffffffffffff168152602001908152602001600020546111d091906119d6565b116111da57600080fd5b81600460008673ffffffffffffffffffffffffffffffffffffffff1673ffffffffffffffffffffffffffffffffffffffff168152602001908152602001600020600082825461122991906119a2565b9250508190555081600460008573ffffffffffffffffffffffffffffffffffffffff1673ffffffffffffffffffffffffffffffffffffffff168152602001908152602001600020600082825461127f91906119d6565b9250508190555060608190508373ffffffffffffffffffffffffffffffffffffffff168573ffffffffffffffffffffffffffffffffffffffff167fddf252ad1be2c89b69c2b068fc378daa952ba7f163c4a11628f55a4df523b3ef856040516112e891906116a8565b60405180910390a35050505050565b600061134933868686868080601f016020809104026020016040519081016040528093929190818152602001838380828437600081840152601f19601f820116905080830192505050505050506110c0565b60008590508073ffffffffffffffffffffffffffffffffffffffff1663c0ee0b8a338787876040518563ffffffff1660e01b815260040161138d9493929190611a88565b600060405180830381600087803b1580156113a757600080fd5b505af11580156113bb573d6000803e3d6000fd5b505050506001915050949350505050565b600082825260208201905092915050565b7f646f6573206e6f74206163636570742065746800000000000000000000000000600082015250565b60006114136013836113cc565b915061141e826113dd565b602082019050919050565b6000602082019050818103600083015261144281611406565b9050919050565b7f63616c6c6461746120646f6573206e6f74206d6174636820612066756e63746960008201527f6f6e000000000000000000000000000000000000000000000000000000000000602082015250565b60006114a56022836113cc565b91506114b082611449565b604082019050919050565b600060208201905081810360008301526114d481611498565b9050919050565b600081519050919050565b60005b838110156115045780820151818401526020810190506114e9565b83811115611513576000848401525b50505050565b6000601f19601f8301169050919050565b6000611535826114db565b61153f81856113cc565b935061154f8185602086016114e6565b61155881611519565b840191505092915050565b6000602082019050818103600083015261157d818461152a565b905092915050565b600080fd5b600080fd5b600073ffffffffffffffffffffffffffffffffffffffff82169050919050565b60006115ba8261158f565b9050919050565b6115ca816115af565b81146115d557600080fd5b50565b6000813590506115e7816115c1565b92915050565b6000819050919050565b611600816115ed565b811461160b57600080fd5b50565b60008135905061161d816115f7565b92915050565b6000806040838503121561163a57611639611585565b5b6000611648858286016115d8565b92505060206116598582860161160e565b9150509250929050565b60008115159050919050565b61167881611663565b82525050565b6000602082019050611693600083018461166f565b92915050565b6116a2816115ed565b82525050565b60006020820190506116bd6000830184611699565b92915050565b6000806000606084860312156116dc576116db611585565b5b60006116ea868287016115d8565b93505060206116fb868287016115d8565b925050604061170c8682870161160e565b9150509250925092565b600060ff82169050919050565b61172c81611716565b82525050565b60006020820190506117476000830184611723565b92915050565b60006020828403121561176357611762611585565b5b60006117718482850161160e565b91505092915050565b6000602082840312156117905761178f611585565b5b600061179e848285016115d8565b91505092915050565b600080fd5b600080fd5b600080fd5b60008083601f8401126117cc576117cb6117a7565b5b8235905067ffffffffffffffff8111156117e9576117e86117ac565b5b602083019150836001820283011115611805576118046117b1565b5b9250929050565b6000806000806060858703121561182657611825611585565b5b6000611834878288016115d8565b94505060206118458782880161160e565b935050604085013567ffffffffffffffff8111156118665761186561158a565b5b611872878288016117b6565b925092505092959194509250565b6000806040838503121561189757611896611585565b5b60006118a5858286016115d8565b92505060206118b6858286016115d8565b9150509250929050565b6000806000606084860312156118d9576118d8611585565b5b60006118e7868287016115d8565b93505060206118f88682870161160e565b92505060406119098682870161160e565b9150509250925092565b7f4e487b7100000000000000000000000000000000000000000000000000000000600052602260045260246000fd5b6000600282049050600182168061195a57607f821691505b60208210810361196d5761196c611913565b5b50919050565b7f4e487b7100000000000000000000000000000000000000000000000000000000600052601160045260246000fd5b60006119ad826115ed565b91506119b8836115ed565b9250828210156119cb576119ca611973565b5b828203905092915050565b60006119e1826115ed565b91506119ec836115ed565b9250827fffffffffffffffffffffffffffffffffffffffffffffffffffffffffffffffff03821115611a2157611a20611973565b5b828201905092915050565b611a35816115af565b82525050565b600082825260208201905092915050565b82818337600083830152505050565b6000611a678385611a3b565b9350611a74838584611a4c565b611a7d83611519565b840190509392505050565b6000606082019050611a9d6000830187611a2c565b611aaa6020830186611699565b8181036040830152611abd818486611a5b565b905095945050505050565b6000606082019050611add6000830186611a2c565b611aea6020830185611699565b611af76040830184611a2c565b94935050505056fea2646970667358221220380b516cec85169ac9939573347a3ee396a8f7c39765675362589b5898c04a9f64736f6c634300080d0033",
  "immutableReferences": {},
  "source": "// SPDX-License-Identifier: MIT\r\n\r\npragma solidity ^0.8.13;\r\n\r\nimport \"./ERC233.sol\";\r\n\r\n// NERC233 factory\r\ncontract NERC233Factory {\r\n    address[] private _deployedTokens;\r\n    mapping(address => string) private _addressToSymbol; // TOKEN_ADDR >> SYMBOL\r\n    mapping(string => address) private _symbolToAddress; // SYMBOL >> TOKEN_ADDR\r\n\r\n    function createToken(string memory name, string memory symbol) public {\r\n        NERC233 token = new NERC233(name, symbol);\r\n        address tokenAddress = address(token);\r\n        _deployedTokens.push(tokenAddress);\r\n        _addressToSymbol[tokenAddress] = symbol;\r\n        _symbolToAddress[symbol] =tokenAddress;\r\n    }\r\n\r\n    function getTokens() public view returns(address[] memory) {\r\n        return _deployedTokens;\r\n    }\r\n\r\n    function getSymbol(address tokenAddress) public view returns(string memory) {\r\n        return _addressToSymbol[tokenAddress];\r\n    }\r\n\r\n    function getAddress(string calldata symbol) public view returns(address) {\r\n        return _symbolToAddress[symbol];\r\n    }\r\n}\r\n\r\n// NERC223 Receiver Interface\r\ninterface NERC233ContractReceiver is ERC233ContractReceiver {\r\n    function tokenAddressFallback( address from, uint value, address tokenAddress )\r\n    external;\r\n}\r\n\r\ncontract NERC233 is ERC223 {\r\n    constructor(string memory name, string memory symbol) ERC223(name, symbol) {}\r\n\r\n    // NERC223 Transfer to a contract or externally-owned account\r\n    function transfer(address to, uint value) override public returns (bool success) {\r\n        if (isContract(to)) {\r\n            return transferTokenToContract(msg.sender, to, value);\r\n        }\r\n        bytes memory empty;\r\n        _transfer( msg.sender, to, value, empty );\r\n        return true;\r\n    }\r\n\r\n    // NERC223 Transfer from address to a contract or externally-owned account\r\n    function transferFrom(address from, address to, uint256 value) override public returns (bool success) {\r\n        require( value <= allowances_[from][msg.sender] );\r\n        allowances_[from][msg.sender] -= value;\r\n\r\n        if (isContract(to)) {\r\n            return transferTokenToContract(from, to, value);\r\n        }\r\n        bytes memory empty;\r\n        _transfer( from, to, value, empty );\r\n        return true;\r\n    }\r\n\r\n    // NERC223 Transfer to contract and invoke tokenAddressFallback() method\r\n    function transferTokenToContract(address from, address to, uint value) private returns (bool success) {\r\n        bytes memory empty;\r\n        _transfer( from, to, value, empty );\r\n\r\n        NERC233ContractReceiver rx = NERC233ContractReceiver(to);\r\n        rx.tokenAddressFallback(from, value, address(this)); // token address\r\n        return true;\r\n    }\r\n\r\n    /*\r\n    TRANSACTIONS:\r\n        mint\r\n        mintTo\r\n        burn\r\n        burnFrom\r\n        approve\r\n        approveAndCall\r\n        safeApprove\r\n        transfer\r\n        transfer\r\n        transferFrom\r\n\r\n    CALLS:\r\n        name\r\n        symbol\r\n        totalSupply\r\n        deimals\r\n        allowance\r\n        balanceOf\r\n     */\r\n}",
  "sourcePath": "C:\\Users\\nimish\\Programs\\Courses\\Web3\\dex-swap\\contract\\contracts\\NERC233.sol",
  "compiler": {
    "name": "solc",
    "version": "0.8.13+commit.abaa5c0e.Emscripten.clang"
  },
  "schemaVersion": "3.4.7",
  "updatedAt": "2022-04-23T17:03:09.352Z",
  "devdoc": {
    "kind": "dev",
    "methods": {},
    "version": 1
  },
  "userdoc": {
    "kind": "user",
    "methods": {},
    "version": 1
  }
}