{
  "contractName": "NERC233Swap",
  "abi": [
    {
      "inputs": [
        {
          "internalType": "string",
          "name": "_poolName",
          "type": "string"
        },
        {
          "internalType": "address",
          "name": "_helperAddress",
          "type": "address"
        },
        {
          "internalType": "string",
          "name": "_tokenSymbolLP",
          "type": "string"
        }
      ],
      "stateMutability": "nonpayable",
      "type": "constructor"
    },
    {
      "inputs": [],
      "name": "poolName",
      "outputs": [
        {
          "internalType": "string",
          "name": "",
          "type": "string"
        }
      ],
      "stateMutability": "view",
      "type": "function",
      "constant": true
    },
    {
      "inputs": [
        {
          "internalType": "address",
          "name": "_user",
          "type": "address"
        },
        {
          "internalType": "string",
          "name": "_symbol",
          "type": "string"
        }
      ],
      "name": "getDeposits",
      "outputs": [
        {
          "internalType": "uint256",
          "name": "",
          "type": "uint256"
        }
      ],
      "stateMutability": "view",
      "type": "function",
      "constant": true
    },
    {
      "inputs": [
        {
          "internalType": "address",
          "name": "from",
          "type": "address"
        },
        {
          "internalType": "uint256",
          "name": "value",
          "type": "uint256"
        },
        {
          "internalType": "bytes",
          "name": "data",
          "type": "bytes"
        }
      ],
      "name": "tokenFallback",
      "outputs": [],
      "stateMutability": "nonpayable",
      "type": "function"
    },
    {
      "inputs": [
        {
          "internalType": "address",
          "name": "from",
          "type": "address"
        },
        {
          "internalType": "uint256",
          "name": "value",
          "type": "uint256"
        },
        {
          "internalType": "address",
          "name": "tokenAddress",
          "type": "address"
        }
      ],
      "name": "tokenAddressFallback",
      "outputs": [],
      "stateMutability": "nonpayable",
      "type": "function"
    },
    {
      "inputs": [
        {
          "internalType": "string",
          "name": "_symbol",
          "type": "string"
        },
        {
          "internalType": "uint256",
          "name": "_value",
          "type": "uint256"
        }
      ],
      "name": "withdrawToken",
      "outputs": [],
      "stateMutability": "nonpayable",
      "type": "function"
    },
    {
      "inputs": [
        {
          "internalType": "string",
          "name": "_symbolIn",
          "type": "string"
        },
        {
          "internalType": "string",
          "name": "_symbolOut",
          "type": "string"
        },
        {
          "internalType": "uint256",
          "name": "_valueIn",
          "type": "uint256"
        },
        {
          "internalType": "uint256",
          "name": "_valueOut",
          "type": "uint256"
        }
      ],
      "name": "swapTokens",
      "outputs": [],
      "stateMutability": "nonpayable",
      "type": "function"
    }
  ],
  "bytecode": "0x60806040523480156200001157600080fd5b5060405162001afb38038062001afb833981810160405281019062000037919062000364565b82600290805190602001906200004f929190620000b2565b50816000806101000a81548173ffffffffffffffffffffffffffffffffffffffff021916908373ffffffffffffffffffffffffffffffffffffffff1602179055508060019080519060200190620000a8929190620000b2565b5050505062000462565b828054620000c0906200042d565b90600052602060002090601f016020900481019282620000e4576000855562000130565b82601f10620000ff57805160ff191683800117855562000130565b8280016001018555821562000130579182015b828111156200012f57825182559160200191906001019062000112565b5b5090506200013f919062000143565b5090565b5b808211156200015e57600081600090555060010162000144565b5090565b6000604051905090565b600080fd5b600080fd5b600080fd5b600080fd5b6000601f19601f8301169050919050565b7f4e487b7100000000000000000000000000000000000000000000000000000000600052604160045260246000fd5b620001cb8262000180565b810181811067ffffffffffffffff82111715620001ed57620001ec62000191565b5b80604052505050565b60006200020262000162565b9050620002108282620001c0565b919050565b600067ffffffffffffffff82111562000233576200023262000191565b5b6200023e8262000180565b9050602081019050919050565b60005b838110156200026b5780820151818401526020810190506200024e565b838111156200027b576000848401525b50505050565b600062000298620002928462000215565b620001f6565b905082815260208101848484011115620002b757620002b66200017b565b5b620002c48482856200024b565b509392505050565b600082601f830112620002e457620002e362000176565b5b8151620002f684826020860162000281565b91505092915050565b600073ffffffffffffffffffffffffffffffffffffffff82169050919050565b60006200032c82620002ff565b9050919050565b6200033e816200031f565b81146200034a57600080fd5b50565b6000815190506200035e8162000333565b92915050565b60008060006060848603121562000380576200037f6200016c565b5b600084015167ffffffffffffffff811115620003a157620003a062000171565b5b620003af86828701620002cc565b9350506020620003c2868287016200034d565b925050604084015167ffffffffffffffff811115620003e657620003e562000171565b5b620003f486828701620002cc565b9150509250925092565b7f4e487b7100000000000000000000000000000000000000000000000000000000600052602260045260246000fd5b600060028204905060018216806200044657607f821691505b6020821081036200045c576200045b620003fe565b5b50919050565b61168980620004726000396000f3fe608060405234801561001057600080fd5b50600436106100625760003560e01c80632dcb33de1461006757806353200d7614610083578063acc23b2b1461009f578063c0ee0b8a146100cf578063c97a413a146100eb578063f3466dfa14610107575b600080fd5b610081600480360381019061007c9190610c55565b610125565b005b61009d60048036038101906100989190610d5a565b61047b565b005b6100b960048036038101906100b49190610dad565b61048b565b6040516100c69190610e1c565b60405180910390f35b6100e960048036038101906100e49190610e8d565b6104f4565b005b61010560048036038101906101009190610f01565b6104fa565b005b61010f61096c565b60405161011c9190610ffa565b60405180910390f35b60008060009054906101000a900473ffffffffffffffffffffffffffffffffffffffff1673ffffffffffffffffffffffffffffffffffffffff1663c409123688886040518363ffffffff1660e01b8152600401610183929190611058565b602060405180830381865afa1580156101a0573d6000803e3d6000fd5b505050506040513d601f19601f820116820180604052508101906101c49190611091565b90506000819050838173ffffffffffffffffffffffffffffffffffffffff1663dd62ed3e33306040518363ffffffff1660e01b81526004016102079291906110cd565b602060405180830381865afa158015610224573d6000803e3d6000fd5b505050506040513d601f19601f82011682018060405250810190610248919061110b565b101561025357600080fd5b8260008054906101000a900473ffffffffffffffffffffffffffffffffffffffff1673ffffffffffffffffffffffffffffffffffffffff1663f19416543089896040518463ffffffff1660e01b81526004016102b193929190611138565b602060405180830381865afa1580156102ce573d6000803e3d6000fd5b505050506040513d601f19601f820116820180604052508101906102f2919061110b565b10156102fd57600080fd5b8073ffffffffffffffffffffffffffffffffffffffff166323b872dd3330876040518463ffffffff1660e01b815260040161033a9392919061116a565b6020604051808303816000875af1158015610359573d6000803e3d6000fd5b505050506040513d601f19601f8201168201806040525081019061037d91906111d9565b5083600360003373ffffffffffffffffffffffffffffffffffffffff1673ffffffffffffffffffffffffffffffffffffffff16815260200190815260200160002089896040516103ce929190611236565b908152602001604051809103902060008282546103eb919061127e565b9250508190555082600360003373ffffffffffffffffffffffffffffffffffffffff1673ffffffffffffffffffffffffffffffffffffffff1681526020019081526020016000208787604051610442929190611236565b9081526020016040518091039020600082825461045f91906112b2565b925050819055506104718686856104fa565b5050505050505050565b6104868383836109fa565b505050565b6000600360008573ffffffffffffffffffffffffffffffffffffffff1673ffffffffffffffffffffffffffffffffffffffff16815260200190815260200160002083836040516104dc929190611236565b90815260200160405180910390205490509392505050565b50505050565b60008060009054906101000a900473ffffffffffffffffffffffffffffffffffffffff1673ffffffffffffffffffffffffffffffffffffffff1663c409123660016040518263ffffffff1660e01b815260040161055791906113fd565b602060405180830381865afa158015610574573d6000803e3d6000fd5b505050506040513d601f19601f820116820180604052508101906105989190611091565b905060008190508260008054906101000a900473ffffffffffffffffffffffffffffffffffffffff1673ffffffffffffffffffffffffffffffffffffffff1663f19416543088886040518463ffffffff1660e01b81526004016105fd93929190611138565b602060405180830381865afa15801561061a573d6000803e3d6000fd5b505050506040513d601f19601f8201168201806040525081019061063e919061110b565b1161064857600080fd5b82600360003373ffffffffffffffffffffffffffffffffffffffff1673ffffffffffffffffffffffffffffffffffffffff1681526020019081526020016000208686604051610698929190611236565b90815260200160405180910390205410156106b257600080fd5b828173ffffffffffffffffffffffffffffffffffffffff1663dd62ed3e33306040518363ffffffff1660e01b81526004016106ee9291906110cd565b602060405180830381865afa15801561070b573d6000803e3d6000fd5b505050506040513d601f19601f8201168201806040525081019061072f919061110b565b101561073a57600080fd5b82600360003373ffffffffffffffffffffffffffffffffffffffff1673ffffffffffffffffffffffffffffffffffffffff168152602001908152602001600020868660405161078a929190611236565b908152602001604051809103902060008282546107a7919061127e565b9250508190555060008060009054906101000a900473ffffffffffffffffffffffffffffffffffffffff1673ffffffffffffffffffffffffffffffffffffffff1663c409123687876040518363ffffffff1660e01b815260040161080c929190611058565b602060405180830381865afa158015610829573d6000803e3d6000fd5b505050506040513d601f19601f8201168201806040525081019061084d9190611091565b905060008190508073ffffffffffffffffffffffffffffffffffffffff1663a9059cbb33876040518363ffffffff1660e01b815260040161088f92919061141f565b6020604051808303816000875af11580156108ae573d6000803e3d6000fd5b505050506040513d601f19601f820116820180604052508101906108d291906111d9565b5060008054906101000a900473ffffffffffffffffffffffffffffffffffffffff1673ffffffffffffffffffffffffffffffffffffffff1663b8febfe0336001886040518463ffffffff1660e01b815260040161093193929190611448565b600060405180830381600087803b15801561094b57600080fd5b505af115801561095f573d6000803e3d6000fd5b5050505050505050505050565b6002805461097990611337565b80601f01602080910402602001604051908101604052809291908181526020018280546109a590611337565b80156109f25780601f106109c7576101008083540402835291602001916109f2565b820191906000526020600020905b8154815290600101906020018083116109d557829003601f168201915b505050505081565b60008060009054906101000a900473ffffffffffffffffffffffffffffffffffffffff1673ffffffffffffffffffffffffffffffffffffffff166381a73ad5836040518263ffffffff1660e01b8152600401610a569190611486565b600060405180830381865afa158015610a73573d6000803e3d6000fd5b505050506040513d6000823e3d601f19601f82011682018060405250810190610a9c91906115c2565b905082600360008673ffffffffffffffffffffffffffffffffffffffff1673ffffffffffffffffffffffffffffffffffffffff16815260200190815260200160002082604051610aec919061163c565b90815260200160405180910390206000828254610b0991906112b2565b9250508190555060008054906101000a900473ffffffffffffffffffffffffffffffffffffffff1673ffffffffffffffffffffffffffffffffffffffff1663611b2fed856001866040518463ffffffff1660e01b8152600401610b6e93929190611448565b600060405180830381600087803b158015610b8857600080fd5b505af1158015610b9c573d6000803e3d6000fd5b5050505050505050565b6000604051905090565b600080fd5b600080fd5b600080fd5b600080fd5b600080fd5b60008083601f840112610bdf57610bde610bba565b5b8235905067ffffffffffffffff811115610bfc57610bfb610bbf565b5b602083019150836001820283011115610c1857610c17610bc4565b5b9250929050565b6000819050919050565b610c3281610c1f565b8114610c3d57600080fd5b50565b600081359050610c4f81610c29565b92915050565b60008060008060008060808789031215610c7257610c71610bb0565b5b600087013567ffffffffffffffff811115610c9057610c8f610bb5565b5b610c9c89828a01610bc9565b9650965050602087013567ffffffffffffffff811115610cbf57610cbe610bb5565b5b610ccb89828a01610bc9565b94509450506040610cde89828a01610c40565b9250506060610cef89828a01610c40565b9150509295509295509295565b600073ffffffffffffffffffffffffffffffffffffffff82169050919050565b6000610d2782610cfc565b9050919050565b610d3781610d1c565b8114610d4257600080fd5b50565b600081359050610d5481610d2e565b92915050565b600080600060608486031215610d7357610d72610bb0565b5b6000610d8186828701610d45565b9350506020610d9286828701610c40565b9250506040610da386828701610d45565b9150509250925092565b600080600060408486031215610dc657610dc5610bb0565b5b6000610dd486828701610d45565b935050602084013567ffffffffffffffff811115610df557610df4610bb5565b5b610e0186828701610bc9565b92509250509250925092565b610e1681610c1f565b82525050565b6000602082019050610e316000830184610e0d565b92915050565b60008083601f840112610e4d57610e4c610bba565b5b8235905067ffffffffffffffff811115610e6a57610e69610bbf565b5b602083019150836001820283011115610e8657610e85610bc4565b5b9250929050565b60008060008060608587031215610ea757610ea6610bb0565b5b6000610eb587828801610d45565b9450506020610ec687828801610c40565b935050604085013567ffffffffffffffff811115610ee757610ee6610bb5565b5b610ef387828801610e37565b925092505092959194509250565b600080600060408486031215610f1a57610f19610bb0565b5b600084013567ffffffffffffffff811115610f3857610f37610bb5565b5b610f4486828701610bc9565b93509350506020610f5786828701610c40565b9150509250925092565b600081519050919050565b600082825260208201905092915050565b60005b83811015610f9b578082015181840152602081019050610f80565b83811115610faa576000848401525b50505050565b6000601f19601f8301169050919050565b6000610fcc82610f61565b610fd68185610f6c565b9350610fe6818560208601610f7d565b610fef81610fb0565b840191505092915050565b600060208201905081810360008301526110148184610fc1565b905092915050565b82818337600083830152505050565b60006110378385610f6c565b935061104483858461101c565b61104d83610fb0565b840190509392505050565b6000602082019050818103600083015261107381848661102b565b90509392505050565b60008151905061108b81610d2e565b92915050565b6000602082840312156110a7576110a6610bb0565b5b60006110b58482850161107c565b91505092915050565b6110c781610d1c565b82525050565b60006040820190506110e260008301856110be565b6110ef60208301846110be565b9392505050565b60008151905061110581610c29565b92915050565b60006020828403121561112157611120610bb0565b5b600061112f848285016110f6565b91505092915050565b600060408201905061114d60008301866110be565b818103602083015261116081848661102b565b9050949350505050565b600060608201905061117f60008301866110be565b61118c60208301856110be565b6111996040830184610e0d565b949350505050565b60008115159050919050565b6111b6816111a1565b81146111c157600080fd5b50565b6000815190506111d3816111ad565b92915050565b6000602082840312156111ef576111ee610bb0565b5b60006111fd848285016111c4565b91505092915050565b600081905092915050565b600061121d8385611206565b935061122a83858461101c565b82840190509392505050565b6000611243828486611211565b91508190509392505050565b7f4e487b7100000000000000000000000000000000000000000000000000000000600052601160045260246000fd5b600061128982610c1f565b915061129483610c1f565b9250828210156112a7576112a661124f565b5b828203905092915050565b60006112bd82610c1f565b91506112c883610c1f565b9250827fffffffffffffffffffffffffffffffffffffffffffffffffffffffffffffffff038211156112fd576112fc61124f565b5b828201905092915050565b7f4e487b7100000000000000000000000000000000000000000000000000000000600052602260045260246000fd5b6000600282049050600182168061134f57607f821691505b60208210810361136257611361611308565b5b50919050565b60008190508160005260206000209050919050565b6000815461138a81611337565b6113948186610f6c565b945060018216600081146113af57600181146113c1576113f4565b60ff19831686526020860193506113f4565b6113ca85611368565b60005b838110156113ec578154818901526001820191506020810190506113cd565b808801955050505b50505092915050565b60006020820190508181036000830152611417818461137d565b905092915050565b600060408201905061143460008301856110be565b6114416020830184610e0d565b9392505050565b600060608201905061145d60008301866110be565b818103602083015261146f818561137d565b905061147e6040830184610e0d565b949350505050565b600060208201905061149b60008301846110be565b92915050565b600080fd5b7f4e487b7100000000000000000000000000000000000000000000000000000000600052604160045260246000fd5b6114de82610fb0565b810181811067ffffffffffffffff821117156114fd576114fc6114a6565b5b80604052505050565b6000611510610ba6565b905061151c82826114d5565b919050565b600067ffffffffffffffff82111561153c5761153b6114a6565b5b61154582610fb0565b9050602081019050919050565b600061156561156084611521565b611506565b905082815260208101848484011115611581576115806114a1565b5b61158c848285610f7d565b509392505050565b600082601f8301126115a9576115a8610bba565b5b81516115b9848260208601611552565b91505092915050565b6000602082840312156115d8576115d7610bb0565b5b600082015167ffffffffffffffff8111156115f6576115f5610bb5565b5b61160284828501611594565b91505092915050565b600061161682610f61565b6116208185611206565b9350611630818560208601610f7d565b80840191505092915050565b6000611648828461160b565b91508190509291505056fea2646970667358221220af2a61c36f26975a43cb785ae3dc9dd1ee431e301a5f179ca299012bca46928e64736f6c634300080d0033",
  "immutableReferences": {},
  "source": "// SPDX-License-Identifier: MIT\r\n\r\npragma solidity ^0.8.13;\r\n\r\nimport \"./NERC233.sol\";\r\nimport \"./NERC233Helper.sol\";\r\n\r\ncontract NERC233Swap is NERC233ContractReceiver {\r\n    NERC233Helper private helper;\r\n    string private tokenSymbolLP;\r\n\r\n    string public poolName;\r\n    mapping(address => mapping(string => uint)) private deposits; // USER_ADDR >> SYMBOL >> AMOUNT\r\n\r\n    constructor(string memory _poolName, address _helperAddress, string memory _tokenSymbolLP) {\r\n        poolName = _poolName;\r\n        helper = NERC233Helper(_helperAddress);\r\n        tokenSymbolLP = _tokenSymbolLP;\r\n    }\r\n\r\n    function getDeposits(address _user, string calldata _symbol) public view returns(uint) {\r\n        return deposits[_user][_symbol];\r\n    }\r\n\r\n    // ERC233 fallback not overridden\r\n    function tokenFallback(address from, uint value, bytes calldata data) external {}\r\n\r\n    function tokenAddressFallback(address from, uint value, address tokenAddress) external {\r\n        depositToken(from, value, tokenAddress);\r\n    }\r\n\r\n    // user sending money to deposit to contract initiates a callback\r\n    // contract registers deposit into user's account\r\n    // contract mints LP token to user.\r\n    function depositToken(address _from, uint _value, address _tokenAddress) private {\r\n        // deposit to contract (++ valueIn)\r\n        string memory _symbol = helper.getTokenSymbol(_tokenAddress);\r\n        deposits[_from][_symbol] += _value;\r\n        // mint LP token to user\r\n        helper.mintToken(_from, tokenSymbolLP, _value);\r\n    }\r\n\r\n    // withdrawing: user has to approve contract to use `value` worth LP tokens\r\n    // contract can send user `value` worth deposited symbol\r\n    // contract burns LP token from user\r\n    function withdrawToken(string calldata _symbol, uint _value) public {\r\n        address payable _tokenAddressLP = payable(helper.getTokenAddress(tokenSymbolLP));\r\n        NERC233 tokenLP = NERC233(_tokenAddressLP);\r\n        // checks\r\n        require(helper.getTokenBalance(address(this), _symbol) > _value);\r\n        require(deposits[msg.sender][_symbol] >= _value);\r\n        require(tokenLP.allowance(msg.sender, address(this)) >= _value);\r\n        // update local values\r\n        deposits[msg.sender][_symbol] -= _value;\r\n        // transfer out to user\r\n        address payable _tokenAddress = payable(helper.getTokenAddress(_symbol));\r\n        NERC233 token = NERC233(_tokenAddress);\r\n        token.transfer(msg.sender, _value);\r\n        // burn LP token from user\r\n        helper.burnToken(msg.sender, tokenSymbolLP, _value);\r\n    }\r\n\r\n    // user has to approve contract to pull `valueIn`\r\n    // contract can send user `valueOut`\r\n    // swap calls 2 transferFrom() (USER > CONTRACT, CONTRACT > USER)\r\n    function swapTokens(string calldata _symbolIn, string calldata _symbolOut, uint _valueIn, uint _valueOut) external {\r\n        address payable _tokenAddressIn = payable(helper.getTokenAddress(_symbolIn));\r\n        NERC233 tokenIn = NERC233(_tokenAddressIn);\r\n        // checks\r\n        // how to make sure valueOut isn't corrupted (ie user isnt cheated)\r\n        require(tokenIn.allowance(msg.sender, address(this)) >= _valueIn);\r\n        require(helper.getTokenBalance(address(this), _symbolOut) >= _valueOut);\r\n        // swap\r\n        tokenIn.transferFrom(msg.sender, address(this), _valueIn); // _symbolIn += _valueIn\r\n        // tokenAddressFallback > depositToken(_symbol1, valueIn) ^ ABOVE LINE ^\r\n        deposits[msg.sender][_symbolIn] -= _valueIn;\r\n        deposits[msg.sender][_symbolOut] += _valueOut;\r\n        withdrawToken(_symbolOut, _valueOut); // _symbolOut += _valueOut\r\n    }\r\n}",
  "sourcePath": "C:\\Users\\nimish\\Programs\\Courses\\Web3\\project-1-dex-swap\\contract\\contracts\\NERC233Swap.sol",
  "compiler": {
    "name": "solc",
    "version": "0.8.13+commit.abaa5c0e.Emscripten.clang"
  },
  "schemaVersion": "3.4.7",
  "updatedAt": "2022-07-29T09:39:13.585Z",
  "networkType": "ethereum",
  "devdoc": {
    "kind": "dev",
    "methods": {},
    "version": 1
  },
  "userdoc": {
    "kind": "user",
    "methods": {},
    "version": 1
  }
}