{
  "contractName": "NERC223Helper",
  "abi": [
    {
      "inputs": [
        {
          "internalType": "string",
          "name": "_symbol",
          "type": "string"
        }
      ],
      "name": "getTokenAddress",
      "outputs": [
        {
          "internalType": "address",
          "name": "",
          "type": "address"
        }
      ],
      "stateMutability": "view",
      "type": "function",
      "constant": true
    },
    {
      "inputs": [
        {
          "internalType": "address",
          "name": "_tokenAddress",
          "type": "address"
        }
      ],
      "name": "getTokenSymbol",
      "outputs": [
        {
          "internalType": "string",
          "name": "",
          "type": "string"
        }
      ],
      "stateMutability": "view",
      "type": "function",
      "constant": true
    },
    {
      "inputs": [
        {
          "internalType": "string",
          "name": "_symbol",
          "type": "string"
        },
        {
          "internalType": "address",
          "name": "_tokenAddress",
          "type": "address"
        }
      ],
      "name": "setTokenAddress",
      "outputs": [],
      "stateMutability": "nonpayable",
      "type": "function"
    },
    {
      "inputs": [
        {
          "internalType": "address",
          "name": "_account",
          "type": "address"
        },
        {
          "internalType": "string",
          "name": "_symbol",
          "type": "string"
        }
      ],
      "name": "getTokenBalance",
      "outputs": [
        {
          "internalType": "uint256",
          "name": "",
          "type": "uint256"
        }
      ],
      "stateMutability": "view",
      "type": "function",
      "constant": true
    },
    {
      "inputs": [
        {
          "internalType": "address",
          "name": "_account",
          "type": "address"
        },
        {
          "internalType": "address payable",
          "name": "_tokenAddress",
          "type": "address"
        }
      ],
      "name": "_getTokenBalance",
      "outputs": [
        {
          "internalType": "uint256",
          "name": "",
          "type": "uint256"
        }
      ],
      "stateMutability": "view",
      "type": "function",
      "constant": true
    },
    {
      "inputs": [
        {
          "internalType": "address",
          "name": "_account",
          "type": "address"
        },
        {
          "internalType": "address payable",
          "name": "_tokenAddress",
          "type": "address"
        },
        {
          "internalType": "uint256",
          "name": "_amount",
          "type": "uint256"
        }
      ],
      "name": "_mintToken",
      "outputs": [],
      "stateMutability": "nonpayable",
      "type": "function"
    },
    {
      "inputs": [
        {
          "internalType": "address",
          "name": "_account",
          "type": "address"
        },
        {
          "internalType": "string",
          "name": "_symbol",
          "type": "string"
        },
        {
          "internalType": "uint256",
          "name": "_amount",
          "type": "uint256"
        }
      ],
      "name": "mintToken",
      "outputs": [],
      "stateMutability": "nonpayable",
      "type": "function"
    },
    {
      "inputs": [
        {
          "internalType": "address",
          "name": "_account",
          "type": "address"
        },
        {
          "internalType": "address payable",
          "name": "_tokenAddress",
          "type": "address"
        },
        {
          "internalType": "uint256",
          "name": "_amount",
          "type": "uint256"
        }
      ],
      "name": "_burnToken",
      "outputs": [],
      "stateMutability": "nonpayable",
      "type": "function"
    },
    {
      "inputs": [
        {
          "internalType": "address",
          "name": "_account",
          "type": "address"
        },
        {
          "internalType": "string",
          "name": "_symbol",
          "type": "string"
        },
        {
          "internalType": "uint256",
          "name": "_amount",
          "type": "uint256"
        }
      ],
      "name": "burnToken",
      "outputs": [],
      "stateMutability": "nonpayable",
      "type": "function"
    }
  ],
  "bytecode": "0x608060405234801561001057600080fd5b50610f00806100206000396000f3fe608060405234801561001057600080fd5b50600436106100935760003560e01c806381a73ad51161006657806381a73ad514610108578063b8febfe014610138578063bcaf873014610154578063c409123614610184578063f1941654146101b457610093565b806317456e5614610098578063582a3a4c146100b4578063611b2fed146100d05780637d75df08146100ec575b600080fd5b6100b260048036038101906100ad9190610912565b6101e4565b005b6100ce60048036038101906100c991906109e6565b610297565b005b6100ea60048036038101906100e59190610a39565b610321565b005b610106600480360381019061010191906109e6565b6103e6565b005b610122600480360381019061011d9190610aad565b610470565b60405161012f9190610b73565b60405180910390f35b610152600480360381019061014d9190610a39565b610541565b005b61016e60048036038101906101699190610b95565b610606565b60405161017b9190610be4565b60405180910390f35b61019e60048036038101906101999190610bff565b61068f565b6040516101ab9190610c5b565b60405180910390f35b6101ce60048036038101906101c99190610c76565b6106d9565b6040516101db9190610be4565b60405180910390f35b80600084846040516101f7929190610d15565b908152602001604051809103902060006101000a81548173ffffffffffffffffffffffffffffffffffffffff021916908373ffffffffffffffffffffffffffffffffffffffff1602179055508282600160008473ffffffffffffffffffffffffffffffffffffffff1673ffffffffffffffffffffffffffffffffffffffff16815260200190815260200160002091906102919291906107a2565b50505050565b60008290508073ffffffffffffffffffffffffffffffffffffffff166379cc679085846040518363ffffffff1660e01b81526004016102d7929190610d2e565b6020604051808303816000875af11580156102f6573d6000803e3d6000fd5b505050506040513d601f19601f8201168201806040525081019061031a9190610d8f565b5050505050565b6000808484604051610334929190610d15565b908152602001604051809103902060009054906101000a900473ffffffffffffffffffffffffffffffffffffffff169050600073ffffffffffffffffffffffffffffffffffffffff168173ffffffffffffffffffffffffffffffffffffffff16036103d4576040517f08c379a00000000000000000000000000000000000000000000000000000000081526004016103cb90610e08565b60405180910390fd5b6103df8582846103e6565b5050505050565b60008290508073ffffffffffffffffffffffffffffffffffffffff1663449a52f885846040518363ffffffff1660e01b8152600401610426929190610d2e565b6020604051808303816000875af1158015610445573d6000803e3d6000fd5b505050506040513d601f19601f820116820180604052508101906104699190610d8f565b5050505050565b6060600160008373ffffffffffffffffffffffffffffffffffffffff1673ffffffffffffffffffffffffffffffffffffffff16815260200190815260200160002080546104bc90610e57565b80601f01602080910402602001604051908101604052809291908181526020018280546104e890610e57565b80156105355780601f1061050a57610100808354040283529160200191610535565b820191906000526020600020905b81548152906001019060200180831161051857829003601f168201915b50505050509050919050565b6000808484604051610554929190610d15565b908152602001604051809103902060009054906101000a900473ffffffffffffffffffffffffffffffffffffffff169050600073ffffffffffffffffffffffffffffffffffffffff168173ffffffffffffffffffffffffffffffffffffffff16036105f4576040517f08c379a00000000000000000000000000000000000000000000000000000000081526004016105eb90610e08565b60405180910390fd5b6105ff858284610297565b5050505050565b6000808290508073ffffffffffffffffffffffffffffffffffffffff166370a08231856040518263ffffffff1660e01b81526004016106459190610c5b565b602060405180830381865afa158015610662573d6000803e3d6000fd5b505050506040513d601f19601f820116820180604052508101906106869190610e9d565b91505092915050565b60008083836040516106a2929190610d15565b908152602001604051809103902060009054906101000a900473ffffffffffffffffffffffffffffffffffffffff16905092915050565b600080600084846040516106ee929190610d15565b908152602001604051809103902060009054906101000a900473ffffffffffffffffffffffffffffffffffffffff169050600073ffffffffffffffffffffffffffffffffffffffff168173ffffffffffffffffffffffffffffffffffffffff160361078e576040517f08c379a000000000000000000000000000000000000000000000000000000000815260040161078590610e08565b60405180910390fd5b6107988582610606565b9150509392505050565b8280546107ae90610e57565b90600052602060002090601f0160209004810192826107d05760008555610817565b82601f106107e957803560ff1916838001178555610817565b82800160010185558215610817579182015b828111156108165782358255916020019190600101906107fb565b5b5090506108249190610828565b5090565b5b80821115610841576000816000905550600101610829565b5090565b600080fd5b600080fd5b600080fd5b600080fd5b600080fd5b60008083601f8401126108745761087361084f565b5b8235905067ffffffffffffffff81111561089157610890610854565b5b6020830191508360018202830111156108ad576108ac610859565b5b9250929050565b600073ffffffffffffffffffffffffffffffffffffffff82169050919050565b60006108df826108b4565b9050919050565b6108ef816108d4565b81146108fa57600080fd5b50565b60008135905061090c816108e6565b92915050565b60008060006040848603121561092b5761092a610845565b5b600084013567ffffffffffffffff8111156109495761094861084a565b5b6109558682870161085e565b93509350506020610968868287016108fd565b9150509250925092565b600061097d826108b4565b9050919050565b61098d81610972565b811461099857600080fd5b50565b6000813590506109aa81610984565b92915050565b6000819050919050565b6109c3816109b0565b81146109ce57600080fd5b50565b6000813590506109e0816109ba565b92915050565b6000806000606084860312156109ff576109fe610845565b5b6000610a0d868287016108fd565b9350506020610a1e8682870161099b565b9250506040610a2f868287016109d1565b9150509250925092565b60008060008060608587031215610a5357610a52610845565b5b6000610a61878288016108fd565b945050602085013567ffffffffffffffff811115610a8257610a8161084a565b5b610a8e8782880161085e565b93509350506040610aa1878288016109d1565b91505092959194509250565b600060208284031215610ac357610ac2610845565b5b6000610ad1848285016108fd565b91505092915050565b600081519050919050565b600082825260208201905092915050565b60005b83811015610b14578082015181840152602081019050610af9565b83811115610b23576000848401525b50505050565b6000601f19601f8301169050919050565b6000610b4582610ada565b610b4f8185610ae5565b9350610b5f818560208601610af6565b610b6881610b29565b840191505092915050565b60006020820190508181036000830152610b8d8184610b3a565b905092915050565b60008060408385031215610bac57610bab610845565b5b6000610bba858286016108fd565b9250506020610bcb8582860161099b565b9150509250929050565b610bde816109b0565b82525050565b6000602082019050610bf96000830184610bd5565b92915050565b60008060208385031215610c1657610c15610845565b5b600083013567ffffffffffffffff811115610c3457610c3361084a565b5b610c408582860161085e565b92509250509250929050565b610c55816108d4565b82525050565b6000602082019050610c706000830184610c4c565b92915050565b600080600060408486031215610c8f57610c8e610845565b5b6000610c9d868287016108fd565b935050602084013567ffffffffffffffff811115610cbe57610cbd61084a565b5b610cca8682870161085e565b92509250509250925092565b600081905092915050565b82818337600083830152505050565b6000610cfc8385610cd6565b9350610d09838584610ce1565b82840190509392505050565b6000610d22828486610cf0565b91508190509392505050565b6000604082019050610d436000830185610c4c565b610d506020830184610bd5565b9392505050565b60008115159050919050565b610d6c81610d57565b8114610d7757600080fd5b50565b600081519050610d8981610d63565b92915050565b600060208284031215610da557610da4610845565b5b6000610db384828501610d7a565b91505092915050565b7f53455420544f4b454e2046495253540000000000000000000000000000000000600082015250565b6000610df2600f83610ae5565b9150610dfd82610dbc565b602082019050919050565b60006020820190508181036000830152610e2181610de5565b9050919050565b7f4e487b7100000000000000000000000000000000000000000000000000000000600052602260045260246000fd5b60006002820490506001821680610e6f57607f821691505b602082108103610e8257610e81610e28565b5b50919050565b600081519050610e97816109ba565b92915050565b600060208284031215610eb357610eb2610845565b5b6000610ec184828501610e88565b9150509291505056fea2646970667358221220bdfa65f2761e91ea78118a081e66cf9b7316dbcda052690ee9c8f4edad1cd5e764736f6c634300080d0033",
  "immutableReferences": {},
  "source": "// SPDX-License-Identifier: MIT\r\n\r\npragma solidity ^0.8.13;\r\n\r\nimport \"./NERC223.sol\";\r\n\r\n/*\r\nWORKS ONLY WITH `NERC223` TOKENS\r\n*/\r\ncontract NERC223Helper {\r\n    mapping(string => address) private tokenSymbolToAddress;\r\n    mapping(address => string) private tokenAddressToSymbol;\r\n\r\n    /* MAP SYMBOLS TO TOKEN ADDRESS */\r\n    function getTokenAddress(string calldata _symbol) public view returns(address){\r\n        return tokenSymbolToAddress[_symbol];\r\n    }\r\n\r\n    function getTokenSymbol(address _tokenAddress) public view returns(string memory){\r\n        return tokenAddressToSymbol[_tokenAddress];\r\n    }\r\n\r\n    function setTokenAddress(string calldata _symbol, address _tokenAddress) public {\r\n        tokenSymbolToAddress[_symbol] = _tokenAddress;\r\n        tokenAddressToSymbol[_tokenAddress] = _symbol;\r\n    }\r\n\r\n    /* GET BALANCE */\r\n    function getTokenBalance(address _account, string calldata _symbol) public view returns (uint) {\r\n        address payable tokenAddress = payable(tokenSymbolToAddress[_symbol]);\r\n        require(tokenAddress != address(0), \"SET TOKEN FIRST\");\r\n        return _getTokenBalance(_account, tokenAddress);\r\n    }\r\n\r\n    function _getTokenBalance(address _account, address payable _tokenAddress) public view returns(uint) {\r\n        NERC223 token = NERC223(_tokenAddress); // address not new init params\r\n        return token.balanceOf(_account);\r\n    }\r\n\r\n    /* MINT TOKEN */\r\n    function _mintToken(address _account, address payable _tokenAddress, uint _amount) public {\r\n        NERC223 token = NERC223(_tokenAddress);\r\n        token.mintTo(_account, _amount);\r\n    }\r\n\r\n    function mintToken(address _account, string calldata _symbol, uint _amount) public {\r\n        address payable tokenAddress = payable(tokenSymbolToAddress[_symbol]);\r\n        require(tokenAddress != address(0), \"SET TOKEN FIRST\");\r\n        return _mintToken(_account, tokenAddress, _amount);\r\n    }\r\n\r\n    /* BURN TOKEN */\r\n    function _burnToken(address _account, address payable _tokenAddress, uint _amount) public {\r\n        NERC223 token = NERC223(_tokenAddress);\r\n        token.burnFrom(_account, _amount);\r\n    }\r\n\r\n    function burnToken(address _account, string calldata _symbol, uint _amount) public {\r\n        address payable tokenAddress = payable(tokenSymbolToAddress[_symbol]);\r\n        require(tokenAddress != address(0), \"SET TOKEN FIRST\");\r\n        return _burnToken(_account, tokenAddress, _amount);\r\n    }\r\n}",
  "sourcePath": "C:\\Users\\nimish\\Programs\\Courses\\Web3\\project-1-dex-swap\\contract\\contracts\\NERC223Helper.sol",
  "compiler": {
    "name": "solc",
    "version": "0.8.13+commit.abaa5c0e.Emscripten.clang"
  },
  "schemaVersion": "3.4.7",
  "updatedAt": "2022-08-08T21:32:04.827Z",
  "networkType": "ethereum",
  "devdoc": {
    "kind": "dev",
    "methods": {},
    "version": 1
  },
  "userdoc": {
    "kind": "user",
    "methods": {},
    "version": 1
  }
}