{
  "contractName": "NERC233Swap",
  "abi": [
    {
      "inputs": [
        {
          "internalType": "string",
          "name": "_poolName",
          "type": "string"
        },
        {
          "internalType": "address",
          "name": "_helperAddress",
          "type": "address"
        }
      ],
      "stateMutability": "nonpayable",
      "type": "constructor"
    },
    {
      "inputs": [],
      "name": "poolName",
      "outputs": [
        {
          "internalType": "string",
          "name": "",
          "type": "string"
        }
      ],
      "stateMutability": "view",
      "type": "function",
      "constant": true
    },
    {
      "inputs": [
        {
          "internalType": "address",
          "name": "_user",
          "type": "address"
        },
        {
          "internalType": "string",
          "name": "_symbol",
          "type": "string"
        }
      ],
      "name": "getDeposits",
      "outputs": [
        {
          "internalType": "uint256",
          "name": "",
          "type": "uint256"
        }
      ],
      "stateMutability": "view",
      "type": "function",
      "constant": true
    },
    {
      "inputs": [
        {
          "internalType": "address",
          "name": "from",
          "type": "address"
        },
        {
          "internalType": "uint256",
          "name": "value",
          "type": "uint256"
        },
        {
          "internalType": "bytes",
          "name": "data",
          "type": "bytes"
        }
      ],
      "name": "tokenFallback",
      "outputs": [],
      "stateMutability": "nonpayable",
      "type": "function"
    },
    {
      "inputs": [
        {
          "internalType": "address",
          "name": "from",
          "type": "address"
        },
        {
          "internalType": "uint256",
          "name": "value",
          "type": "uint256"
        },
        {
          "internalType": "address",
          "name": "tokenAddress",
          "type": "address"
        }
      ],
      "name": "tokenAddressFallback",
      "outputs": [],
      "stateMutability": "nonpayable",
      "type": "function"
    },
    {
      "inputs": [
        {
          "internalType": "string",
          "name": "_symbol",
          "type": "string"
        },
        {
          "internalType": "uint256",
          "name": "_value",
          "type": "uint256"
        }
      ],
      "name": "withdrawToken",
      "outputs": [],
      "stateMutability": "nonpayable",
      "type": "function"
    },
    {
      "inputs": [
        {
          "internalType": "string",
          "name": "_symbolIn",
          "type": "string"
        },
        {
          "internalType": "string",
          "name": "_symbolOut",
          "type": "string"
        },
        {
          "internalType": "uint256",
          "name": "_valueIn",
          "type": "uint256"
        },
        {
          "internalType": "uint256",
          "name": "_valueOut",
          "type": "uint256"
        }
      ],
      "name": "swapTokens",
      "outputs": [],
      "stateMutability": "nonpayable",
      "type": "function"
    }
  ],
  "bytecode": "0x60806040523480156200001157600080fd5b50604051620017693803806200176983398181016040528101906200003791906200034a565b81600190805190602001906200004f92919062000098565b50806000806101000a81548173ffffffffffffffffffffffffffffffffffffffff021916908373ffffffffffffffffffffffffffffffffffffffff160217905550505062000414565b828054620000a690620003df565b90600052602060002090601f016020900481019282620000ca576000855562000116565b82601f10620000e557805160ff191683800117855562000116565b8280016001018555821562000116579182015b8281111562000115578251825591602001919060010190620000f8565b5b50905062000125919062000129565b5090565b5b80821115620001445760008160009055506001016200012a565b5090565b6000604051905090565b600080fd5b600080fd5b600080fd5b600080fd5b6000601f19601f8301169050919050565b7f4e487b7100000000000000000000000000000000000000000000000000000000600052604160045260246000fd5b620001b18262000166565b810181811067ffffffffffffffff82111715620001d357620001d262000177565b5b80604052505050565b6000620001e862000148565b9050620001f68282620001a6565b919050565b600067ffffffffffffffff82111562000219576200021862000177565b5b620002248262000166565b9050602081019050919050565b60005b838110156200025157808201518184015260208101905062000234565b8381111562000261576000848401525b50505050565b60006200027e6200027884620001fb565b620001dc565b9050828152602081018484840111156200029d576200029c62000161565b5b620002aa84828562000231565b509392505050565b600082601f830112620002ca57620002c96200015c565b5b8151620002dc84826020860162000267565b91505092915050565b600073ffffffffffffffffffffffffffffffffffffffff82169050919050565b60006200031282620002e5565b9050919050565b620003248162000305565b81146200033057600080fd5b50565b600081519050620003448162000319565b92915050565b6000806040838503121562000364576200036362000152565b5b600083015167ffffffffffffffff81111562000385576200038462000157565b5b6200039385828601620002b2565b9250506020620003a68582860162000333565b9150509250929050565b7f4e487b7100000000000000000000000000000000000000000000000000000000600052602260045260246000fd5b60006002820490506001821680620003f857607f821691505b6020821081036200040e576200040d620003b0565b5b50919050565b61134580620004246000396000f3fe608060405234801561001057600080fd5b50600436106100625760003560e01c80632dcb33de1461006757806353200d7614610083578063acc23b2b1461009f578063c0ee0b8a146100cf578063c97a413a146100eb578063f3466dfa14610107575b600080fd5b610081600480360381019061007c9190610a06565b610125565b005b61009d60048036038101906100989190610b0b565b61047b565b005b6100b960048036038101906100b49190610b5e565b61048b565b6040516100c69190610bcd565b60405180910390f35b6100e960048036038101906100e49190610c3e565b6104f4565b005b61010560048036038101906101009190610cb2565b6104fa565b005b61010f6107ad565b60405161011c9190610dab565b60405180910390f35b60008060009054906101000a900473ffffffffffffffffffffffffffffffffffffffff1673ffffffffffffffffffffffffffffffffffffffff1663c409123688886040518363ffffffff1660e01b8152600401610183929190610e09565b602060405180830381865afa1580156101a0573d6000803e3d6000fd5b505050506040513d601f19601f820116820180604052508101906101c49190610e42565b90506000819050838173ffffffffffffffffffffffffffffffffffffffff1663dd62ed3e33306040518363ffffffff1660e01b8152600401610207929190610e7e565b602060405180830381865afa158015610224573d6000803e3d6000fd5b505050506040513d601f19601f820116820180604052508101906102489190610ebc565b101561025357600080fd5b8260008054906101000a900473ffffffffffffffffffffffffffffffffffffffff1673ffffffffffffffffffffffffffffffffffffffff1663f19416543089896040518463ffffffff1660e01b81526004016102b193929190610ee9565b602060405180830381865afa1580156102ce573d6000803e3d6000fd5b505050506040513d601f19601f820116820180604052508101906102f29190610ebc565b10156102fd57600080fd5b8073ffffffffffffffffffffffffffffffffffffffff166323b872dd3330876040518463ffffffff1660e01b815260040161033a93929190610f1b565b6020604051808303816000875af1158015610359573d6000803e3d6000fd5b505050506040513d601f19601f8201168201806040525081019061037d9190610f8a565b5083600260003373ffffffffffffffffffffffffffffffffffffffff1673ffffffffffffffffffffffffffffffffffffffff16815260200190815260200160002089896040516103ce929190610fe7565b908152602001604051809103902060008282546103eb919061102f565b9250508190555082600260003373ffffffffffffffffffffffffffffffffffffffff1673ffffffffffffffffffffffffffffffffffffffff1681526020019081526020016000208787604051610442929190610fe7565b9081526020016040518091039020600082825461045f9190611063565b925050819055506104718686856104fa565b5050505050505050565b61048683838361083b565b505050565b6000600260008573ffffffffffffffffffffffffffffffffffffffff1673ffffffffffffffffffffffffffffffffffffffff16815260200190815260200160002083836040516104dc929190610fe7565b90815260200160405180910390205490509392505050565b50505050565b8060008054906101000a900473ffffffffffffffffffffffffffffffffffffffff1673ffffffffffffffffffffffffffffffffffffffff1663f19416543086866040518463ffffffff1660e01b815260040161055893929190610ee9565b602060405180830381865afa158015610575573d6000803e3d6000fd5b505050506040513d601f19601f820116820180604052508101906105999190610ebc565b116105a357600080fd5b80600260003373ffffffffffffffffffffffffffffffffffffffff1673ffffffffffffffffffffffffffffffffffffffff16815260200190815260200160002084846040516105f3929190610fe7565b908152602001604051809103902054101561060d57600080fd5b80600260003373ffffffffffffffffffffffffffffffffffffffff1673ffffffffffffffffffffffffffffffffffffffff168152602001908152602001600020848460405161065d929190610fe7565b9081526020016040518091039020600082825461067a919061102f565b9250508190555060008060009054906101000a900473ffffffffffffffffffffffffffffffffffffffff1673ffffffffffffffffffffffffffffffffffffffff1663c409123685856040518363ffffffff1660e01b81526004016106df929190610e09565b602060405180830381865afa1580156106fc573d6000803e3d6000fd5b505050506040513d601f19601f820116820180604052508101906107209190610e42565b905060008190508073ffffffffffffffffffffffffffffffffffffffff1663a9059cbb33856040518363ffffffff1660e01b81526004016107629291906110b9565b6020604051808303816000875af1158015610781573d6000803e3d6000fd5b505050506040513d601f19601f820116820180604052508101906107a59190610f8a565b505050505050565b600180546107ba90611111565b80601f01602080910402602001604051908101604052809291908181526020018280546107e690611111565b80156108335780601f1061080857610100808354040283529160200191610833565b820191906000526020600020905b81548152906001019060200180831161081657829003601f168201915b505050505081565b60008060009054906101000a900473ffffffffffffffffffffffffffffffffffffffff1673ffffffffffffffffffffffffffffffffffffffff166381a73ad5836040518263ffffffff1660e01b81526004016108979190611142565b600060405180830381865afa1580156108b4573d6000803e3d6000fd5b505050506040513d6000823e3d601f19601f820116820180604052508101906108dd919061127e565b905082600260008673ffffffffffffffffffffffffffffffffffffffff1673ffffffffffffffffffffffffffffffffffffffff1681526020019081526020016000208260405161092d91906112f8565b9081526020016040518091039020600082825461094a9190611063565b9250508190555050505050565b6000604051905090565b600080fd5b600080fd5b600080fd5b600080fd5b600080fd5b60008083601f8401126109905761098f61096b565b5b8235905067ffffffffffffffff8111156109ad576109ac610970565b5b6020830191508360018202830111156109c9576109c8610975565b5b9250929050565b6000819050919050565b6109e3816109d0565b81146109ee57600080fd5b50565b600081359050610a00816109da565b92915050565b60008060008060008060808789031215610a2357610a22610961565b5b600087013567ffffffffffffffff811115610a4157610a40610966565b5b610a4d89828a0161097a565b9650965050602087013567ffffffffffffffff811115610a7057610a6f610966565b5b610a7c89828a0161097a565b94509450506040610a8f89828a016109f1565b9250506060610aa089828a016109f1565b9150509295509295509295565b600073ffffffffffffffffffffffffffffffffffffffff82169050919050565b6000610ad882610aad565b9050919050565b610ae881610acd565b8114610af357600080fd5b50565b600081359050610b0581610adf565b92915050565b600080600060608486031215610b2457610b23610961565b5b6000610b3286828701610af6565b9350506020610b43868287016109f1565b9250506040610b5486828701610af6565b9150509250925092565b600080600060408486031215610b7757610b76610961565b5b6000610b8586828701610af6565b935050602084013567ffffffffffffffff811115610ba657610ba5610966565b5b610bb28682870161097a565b92509250509250925092565b610bc7816109d0565b82525050565b6000602082019050610be26000830184610bbe565b92915050565b60008083601f840112610bfe57610bfd61096b565b5b8235905067ffffffffffffffff811115610c1b57610c1a610970565b5b602083019150836001820283011115610c3757610c36610975565b5b9250929050565b60008060008060608587031215610c5857610c57610961565b5b6000610c6687828801610af6565b9450506020610c77878288016109f1565b935050604085013567ffffffffffffffff811115610c9857610c97610966565b5b610ca487828801610be8565b925092505092959194509250565b600080600060408486031215610ccb57610cca610961565b5b600084013567ffffffffffffffff811115610ce957610ce8610966565b5b610cf58682870161097a565b93509350506020610d08868287016109f1565b9150509250925092565b600081519050919050565b600082825260208201905092915050565b60005b83811015610d4c578082015181840152602081019050610d31565b83811115610d5b576000848401525b50505050565b6000601f19601f8301169050919050565b6000610d7d82610d12565b610d878185610d1d565b9350610d97818560208601610d2e565b610da081610d61565b840191505092915050565b60006020820190508181036000830152610dc58184610d72565b905092915050565b82818337600083830152505050565b6000610de88385610d1d565b9350610df5838584610dcd565b610dfe83610d61565b840190509392505050565b60006020820190508181036000830152610e24818486610ddc565b90509392505050565b600081519050610e3c81610adf565b92915050565b600060208284031215610e5857610e57610961565b5b6000610e6684828501610e2d565b91505092915050565b610e7881610acd565b82525050565b6000604082019050610e936000830185610e6f565b610ea06020830184610e6f565b9392505050565b600081519050610eb6816109da565b92915050565b600060208284031215610ed257610ed1610961565b5b6000610ee084828501610ea7565b91505092915050565b6000604082019050610efe6000830186610e6f565b8181036020830152610f11818486610ddc565b9050949350505050565b6000606082019050610f306000830186610e6f565b610f3d6020830185610e6f565b610f4a6040830184610bbe565b949350505050565b60008115159050919050565b610f6781610f52565b8114610f7257600080fd5b50565b600081519050610f8481610f5e565b92915050565b600060208284031215610fa057610f9f610961565b5b6000610fae84828501610f75565b91505092915050565b600081905092915050565b6000610fce8385610fb7565b9350610fdb838584610dcd565b82840190509392505050565b6000610ff4828486610fc2565b91508190509392505050565b7f4e487b7100000000000000000000000000000000000000000000000000000000600052601160045260246000fd5b600061103a826109d0565b9150611045836109d0565b92508282101561105857611057611000565b5b828203905092915050565b600061106e826109d0565b9150611079836109d0565b9250827fffffffffffffffffffffffffffffffffffffffffffffffffffffffffffffffff038211156110ae576110ad611000565b5b828201905092915050565b60006040820190506110ce6000830185610e6f565b6110db6020830184610bbe565b9392505050565b7f4e487b7100000000000000000000000000000000000000000000000000000000600052602260045260246000fd5b6000600282049050600182168061112957607f821691505b60208210810361113c5761113b6110e2565b5b50919050565b60006020820190506111576000830184610e6f565b92915050565b600080fd5b7f4e487b7100000000000000000000000000000000000000000000000000000000600052604160045260246000fd5b61119a82610d61565b810181811067ffffffffffffffff821117156111b9576111b8611162565b5b80604052505050565b60006111cc610957565b90506111d88282611191565b919050565b600067ffffffffffffffff8211156111f8576111f7611162565b5b61120182610d61565b9050602081019050919050565b600061122161121c846111dd565b6111c2565b90508281526020810184848401111561123d5761123c61115d565b5b611248848285610d2e565b509392505050565b600082601f8301126112655761126461096b565b5b815161127584826020860161120e565b91505092915050565b60006020828403121561129457611293610961565b5b600082015167ffffffffffffffff8111156112b2576112b1610966565b5b6112be84828501611250565b91505092915050565b60006112d282610d12565b6112dc8185610fb7565b93506112ec818560208601610d2e565b80840191505092915050565b600061130482846112c7565b91508190509291505056fea264697066735822122015877c3dd4687b8c8f7169f0b7c6c49cbb0b6cb72bd42721fb773b6e2dc27a8b64736f6c634300080d0033",
  "immutableReferences": {},
  "source": "// SPDX-License-Identifier: MIT\r\n\r\npragma solidity ^0.8.13;\r\n\r\nimport \"./NERC233.sol\";\r\nimport \"./NERC233Helper.sol\";\r\n\r\ncontract NERC233Swap is NERC233ContractReceiver {\r\n    NERC233Helper private helper;\r\n    string public poolName;\r\n    mapping(address => mapping(string => uint)) private deposits; // USER_ADDR >> SYMBOL >> AMOUNT\r\n\r\n    constructor(string memory _poolName, address _helperAddress) {\r\n        poolName = _poolName;\r\n        helper = NERC233Helper(_helperAddress);\r\n    }\r\n\r\n    function getDeposits(address _user, string calldata _symbol) public view returns(uint) {\r\n        return deposits[_user][_symbol];\r\n    }\r\n\r\n    // ERC233 fallback not overridden\r\n    function tokenFallback(address from, uint value, bytes calldata data) external {}\r\n\r\n    function tokenAddressFallback(address from, uint value, address tokenAddress) external {\r\n        depositToken(from, value, tokenAddress);\r\n    }\r\n\r\n    function depositToken(address _from, uint _value, address _tokenAddress) private {\r\n        string memory _symbol = helper.getTokenSymbol(_tokenAddress);\r\n        deposits[_from][_symbol] += _value;\r\n    }\r\n\r\n    function withdrawToken(string calldata _symbol, uint _value) public {\r\n        // checks\r\n        require(helper.getTokenBalance(address(this), _symbol) > _value);\r\n        require(deposits[msg.sender][_symbol] >= _value);\r\n        // update local values\r\n        deposits[msg.sender][_symbol] -= _value;\r\n        // transfer out to user\r\n        address payable _tokenAddress = payable(helper.getTokenAddress(_symbol));\r\n        NERC233 token = NERC233(_tokenAddress);\r\n        token.transfer(msg.sender, _value);\r\n    }\r\n\r\n    // user has to approve contract to pull `valueIn`\r\n    // contract can send user `valueOut`\r\n    // swap calls 2 transferFrom() (USER > CONTRACT, CONTRACT > USER)\r\n    function swapTokens(string calldata _symbolIn, string calldata _symbolOut, uint _valueIn, uint _valueOut) external {\r\n        address payable _tokenAddressIn = payable(helper.getTokenAddress(_symbolIn));\r\n        NERC233 tokenIn = NERC233(_tokenAddressIn);\r\n        // checks\r\n        // how to make sure valueOut isn't corrupted (ie user isnt cheated)\r\n        require(tokenIn.allowance(msg.sender, address(this)) >= _valueIn);\r\n        require(helper.getTokenBalance(address(this), _symbolOut) >= _valueOut);\r\n        // swap\r\n        tokenIn.transferFrom(msg.sender, address(this), _valueIn); // _symbolIn += _valueIn\r\n        // tokenAddressFallback > depositToken(_symbol1, valueIn) ^ ABOVE LINE ^\r\n        deposits[msg.sender][_symbolIn] -= _valueIn;\r\n        deposits[msg.sender][_symbolOut] += _valueOut;\r\n        withdrawToken(_symbolOut, _valueOut); // _symbolOut += _valueOut\r\n    }\r\n}",
  "sourcePath": "C:\\Users\\nimish\\Programs\\Courses\\Web3\\dex-swap\\contract\\contracts\\NERC233Swap.sol",
  "compiler": {
    "name": "solc",
    "version": "0.8.13+commit.abaa5c0e.Emscripten.clang"
  },
  "schemaVersion": "3.4.7",
  "updatedAt": "2022-04-23T17:06:36.491Z",
  "networkType": "ethereum",
  "devdoc": {
    "kind": "dev",
    "methods": {},
    "version": 1
  },
  "userdoc": {
    "kind": "user",
    "methods": {},
    "version": 1
  }
}